:020000040800F2
:100000002838002001010008312A0008C920000812
:100010002D2A0008FD0C0008752B000800000000C8
:10002000000000000000000000000000392A000865
:10003000010D000800000000352A0008AD2A000864
:100040001B0100081B0100081B0100081B01000820
:100050001B0100081B010008050D0008510D0008D8
:100060001B0100086D0D00088D0D00081B01000824
:100070001B0100081B0100081B0100081B010008F0
:100080001B0100081B0100081B0100081B010008E0
:100090001B0100081B0100081B0100081B010008D0
:1000A0001B0100081B0100081B0100081B010008C0
:1000B000012B00081D2B00081B0100081B01000874
:1000C0001B0100081B0100081B0100081B010008A0
:1000D0001B010008512B00081B0100081B01000830
:1000E000210D00081B0100081B010008DFF80CD0DF
:1000F00000F0E0FD00480047D946000828380020FD
:100100000648804706480047FEE7FEE7FEE7FEE7B1
:10011000FEE7FEE7FEE7FEE7FEE7FEE7B12A00089E
:10012000ED000008D2B201E000F8012B491EFBD21D
:1001300070470022F6E710B513460A4604461946F2
:10014000FFF7F0FF204610BD30B5044600200346FF
:1001500000E05B1C934203D2E05CCD5C401BF8D016
:1001600030BDF0B480EA0102D40F4200B2EB410F7F
:1001700002D20246084611464A0042D0C30DDDB203
:10018000C1F3C752AD1A202D35DAC1F3160141F47F
:10019000000204B15242C5F1200602FA06F12A41DA
:1001A0001044B3EBD05F23D0C4B1012DA0EBC350FA
:1001B00009DCF0BC4FF0004202EAC352DBB200F5AA
:1001C000000000F085BB400000F1807000EBC350E0
:1001D000A0F1807040EAD170490009E0490841EA85
:1001E000C071A0EBC35000F50000400800EBC35005
:1001F000F0BC00F064BB6142012202EB4101001B34
:10020000F6E7F0BC704781F00041AAE780F00040BB
:10021000A7E780EA010210B502F00043400022D0B7
:100220004A001FD0010E01EB1261C0F35600C2F369
:10023000560240F4000042F40002A0FB0220000439
:100240007F39140400D0401C50EA124001D4400011
:10025000491EC2B20C0604EBD010401C4008802A94
:1002600002D003E0002010BD20F00100002900DAD8
:100270000020184310BD30B480EA010202F00045AE
:1002800030F0004221F0004013D090B1C30DD40DE6
:10029000C2F31601C0F31600E41A41F4000140F461
:1002A00000027D34914201D3641C00E04900002C1F
:1002B00002DA30BC002070474FF400000023914266
:1002C00001D3891A034340084FEA4101F7D151B1E4
:1002D000914202D14FF0004105E002D24FF00101FE
:1002E00001E06FF0010103EBC450284430BC00F082
:1002F000E6BA2DE9FE4F804681EA0300C00F0C46A6
:10030000009021F0004123F00045B8EB0200A94124
:1003100005D24046214690461C460B46024623F035
:100320000040104347D0270DC7F30A00C3F30A511A
:100330000290401A019040286BDAC3F3130040F496
:10034000801B0098924620B10023D2EB030A63EB96
:100350000B0B01985946C0F14002504600F07EFA5E
:1003600006460D4650465946019A00F096FA10EBA3
:1003700008006141002487EA115284EAE7731A43B6
:1003800040D0009A62B3019A012A4FEA075215DC65
:10039000001B61EB02014FF0004202EA0752CDE977
:1003A0000042001C41F5801132462B4600F01AFB3A
:1003B00003B0BDE8F08F40462146F9E7001B61EB32
:1003C0000201001C41F5801300185B412018A2F5C2
:1003D000001747EB030140EAD570B6196D4111E0F3
:1003E0006D084FEA360645EAC0754FEA0752001B12
:1003F00061EB0201001C41F5801149084FEA300011
:100400000019514132462B4603B0BDE8F04F00F0D1
:10041000DABA0098012240000023D0EB020263EB1D
:10042000E073009821464FEAE074B8EB000061EBFE
:100430000401E9E783F000435BE781F0004158E7FE
:100440002DE9FE4F81EA030404F0004421F000414D
:1004500000944FF0000B23F0004350EA01045ED0FB
:1004600052EA03045BD0C3F30A54C1F30A552C4487
:10047000A4F2F3340194A0FB0254C1F3130141F43C
:100480008011C3F3130343F4801301FB024400FB08
:10049000034E840A970A44EA815447EA8357A4FB2F
:1004A000076802958D0A05FB07854FEA932C04FB2C
:1004B0000C542705029D4FEA065847EA1637B5EB5C
:1004C00008056EEB070C870E920E47EA811742EA89
:1004D0008312A7FB0201B6EB0B0164EB00042B0DAA
:1004E00043EA0C335E1844EB1C50DA465146E7FBF6
:1004F0000201C5F313044FEA0B3343EA14534FEAE6
:100500000432019C43EA0603A4F10C040294009C0B
:10051000CDE900B400F066FA03B0BDE8F08F00202A
:100520000146F9E72DE9F04D81EA030404F0004BA0
:1005300021F0004514464FF0000A23F0004150EA34
:10054000050220D054EA01021DD0C5F30A57024625
:10055000C5F31303C1F31300C1F30A5640F4801529
:1005600043F48013A7EB0608101BD64608F2FD38AB
:1005700073EB050002D308F1010801E092185B411A
:10058000B8F1000F03DA00200146BDE8F08D00202D
:100590004FF48011064684460EE0171B73EB0507E7
:1005A00005D3121B63EB050306434CEA010C490813
:1005B0004FEA300092185B4150EA0107EDD152EA50
:1005C000030012D082EA040083EA0501084305D043
:1005D000101BAB4106D20122002306E000224FF09F
:1005E000004302E06FF0010253101AEB06004CEBDF
:1005F000085110EB0A0041EB0B01BDE8F04D00F093
:10060000E2B9002801DBC0F10040002901DBC1F1A3
:100610000041814201D80120704700207047002826
:1006200001DBC0F10040002901DBC1F10041814242
:1006300001D20120704700207047002801DBC0F183
:100640000040002901DBC1F10041814201D30120BA
:10065000704700207047002801DBC0F100400029EE
:1006600001DBC1F10041814201D901207047002026
:100670007047002801DBC0F10040002901DBC1F117
:100680000041814201D1012070470020704730B500
:10069000041E71F1000404DB4FF00044404264EB9F
:1006A0000101141E73F1000405DB1C464FF00043EA
:1006B000524263EB0403801A994101D3012030BDFB
:1006C000002030BD30B5041E71F1000404DB4FF092
:1006D0000044404264EB0101141E73F1000405DB89
:1006E0001C464FF00043524263EB0403101A8B4147
:1006F00001D2012030BD002030BD30B5041E71F1A3
:10070000000404DB4FF00044404264EB0101141E7E
:1007100073F1000405DB1C464FF00043524263EBCB
:100720000403801A994101D2012030BD002030BD60
:10073000C10F80EAE0700844CA079623002100F048
:10074000C7B896230022114600F0C2B80EB540F299
:10075000334102910021CDE900110A460B4600F019
:1007600041F903B000BD00F0004220F00040C10D8F
:10077000C0F3160040F400007F2901DA0020704722
:10078000962903DCC1F19601C84001E09639884002
:10079000002AF4D04042704720F00040C10DC0F361
:1007A000160040F400007F2901DA002070479629E6
:1007B00003DCC1F19601C840704796398840704704
:1007C00070B5C1F30A5201F000450024C1F31301D2
:1007D00040F2FF3341F480119A4201DA002070BDEB
:1007E00040F233439A42A2F2334203DC524200F019
:1007F00044F800E090402C43F1D0404270BD00F03E
:10080000004230F000400AD0C10D01F56071C0F324
:10081000160042EA0151C208400711437047002008
:100820000146704701F0004330B421F0004150EA26
:10083000010206D00A0DA2F56072C1F31301002A6D
:1008400002DC30BC00207047440F44EAC104C10000
:10085000E01830BC00EBC25000F031B8202A04DBB5
:10086000203A00FA02F1002070479140C2F12003C3
:1008700020FA03F3194390407047202A04DB203A02
:1008800021FA02F00021704721FA02F3D040C2F1B0
:1008900020029140084319467047202A06DBCB17F7
:1008A000203A41FA02F043EAE07306E041FA02F32B
:1008B000D040C2F1200291400843194670470029F8
:1008C000A8BF7047401C490008BF20F001007047D6
:1008D00010B4B0FA80FC00FA0CF050EA010404BF36
:1008E00010BC704749B1CCF1200421FA04F411FA8C
:1008F0000CF118BF012121430843A3EB0C01CB1DD0
:100900004FEA00614FEA102042BF002010BC704740
:1009100000EBC35010440029A4BF10BC7047401C1A
:10092000490008BF20F0010010BC7047F0B4002857
:1009300002DCF0BC00207047C0F3C751C0F31600C2
:1009400040F40000CA0701D14000491E3F2202EBDB
:100950006105002211464FF4000626FA01F3134404
:10096000D418844201D8001B1A464000491C17299C
:10097000F3DD5100814202D24FF0FF3100E000214F
:1009800002EBC550F0BCFFF79ABF10B541000CD088
:10099000C0F3C751962908DC7E2909DC06DB410239
:1009A00004D000F0004040F07E5010BD002010BD8B
:1009B000C1F19604C4F1200100FA01F1E040FFF713
:1009C0007EFFA04010BD10B5141E73F1000408DABC
:1009D000401C41F1000192185B411A4301D120F003
:1009E000010010BD2DE9F04D92469B4611B1B1FAC0
:1009F00081F202E0B0FA80F220329046FFF72EFF3B
:100A000004460F4640EA0A0041EA0B0153465A46A3
:100A1000084313D0114653EA010019D0C8F140022F
:100A20005046FFF72AFF05460E46504659464246B5
:100A3000FFF714FF084305D0012004E020463946A3
:100A4000BDE8F08D0020054346EAE0762C433743AD
:100A50000A986305E40AA0EB08000022FD0A44EAB4
:100A600047540A3002D500200146E9E70105101974
:100A70006941DDE9084500196941BDE8F04DA2E78B
:100A80002DE9F04D00231A461B1A8A4103DB002092
:100A90000146BDE8F08DC1F30A52C1F3130141F4E0
:100AA00080154FF0000BD10702D100186D41521E86
:100AB0000027044640F2FF11384601EB620A3E4629
:100AC0008046024600204FF48011FFF7D6FEC2197F
:100AD0007141BB1846EB0100B4EB030C75EB000C45
:100AE00004D3E41A65EB000517460E46241908F1F5
:100AF00001006D4180463428E3DDF91946EB06001C
:100B0000091BA84103D24FF0FF32134601E0002237
:100B100013461BEB070046EB0A51BDE8F04DFFF70B
:100B200052BF00002DE9F041054621F000400C467F
:100B3000284309D0C4F30A5040F23341884205DD0E
:100B400028462146BDE8F0812846FBE740F2FE3109
:100B5000884210DC0CDB4FEA043040EA155050EAC2
:100B6000053105D0104804F0004101430020E9E7B9
:100B700000200146E6E7A0F233404642C6F14002BB
:100B800028462146FFF76AFE074688462846214642
:100B90003246FFF772FE43463A46FFF714FF3246ED
:100BA000BDE8F041FFF75ABE0000F03F2DE9F047E5
:100BB000C1F30A5401F0004805460027C1F31301B0
:100BC00040F2FF3041F4801684421ADAB4F57F7F98
:100BD00000DC841EA4F21344624292462846314649
:100BE000FFF74BFE04465246FFF738FE45404E40A5
:100BF000354301D0012000E0002044EA000100203C
:100C00001BE040F2334084421ADCA4F2F33228465F
:100C10003146FFF723FE0A4678405140084301D091
:100C2000012000E0002040EA020AA4F233446242BC
:100C300028463146FFF721FE5146FFF740FE03E00C
:100C4000A4F2334405FA04F057EA080700D0404202
:100C5000BDE8F08730B5041E71F1000404DB4FF0ED
:100C60000044404264EB0101141E73F1000405DBF3
:100C70001C464FF00043524263EB04038B4208BF13
:100C8000824230BD30B5041E71F1000404DB4FF028
:100C90000044404264EB0101141E73F1000405DBC3
:100CA0001C464FF00043524263EB0403994208BFD5
:100CB000904230BD1CB50948009009480190054696
:100CC000009C06E0E06840F0010394E807009847C4
:100CD0001034AC42F6D3FFF70DFA000080980008FC
:100CE000A0980008420005D0C0F3C752524291427A
:100CF00001DC0020704700EBC1507047FEE70000A8
:100D00007047000080B5012000F066F9012000F076
:100D100043FF4EF28020CEF200004021016080BDF2
:100D200080B54FF4806000F057F94FF4006000F098
:100D300053F94FF4805000F04FF94EF28420CEF278
:100D400000004FF480710160BDE8804000F070BF8A
:100D500080B5022000F040F9022000F01DFF4EF2A5
:100D60008020CEF200008021016080BD80B5082087
:100D700000F032F9082000F00FFF4EF28020CEF292
:100D800000004FF40071016080BD000080B51020AC
:100D900000F022F9102000F0FFFE4EF28020CEF28B
:100DA00000004FF48061016080BD000070470000CA
:100DB00042F65861C2F200010022CA6142F21001FB
:100DC000C4F202010A6842F002020A604860086840
:100DD00040F0400008607047F0B581B042F20C0668
:100DE0000446C4F2020600F00DFA3168C90715D1B5
:100DF0003068800644BF202030603068C00608D4C8
:100E00003069C00705D13068400702D4002001B026
:100E1000F0BD3068C00608D400200FE00546671C0E
:100E20002CD084BB032001B0F0BD42F65860C2F262
:100E30000000C16941F00201C16110203168490719
:100E400009D542F65861C2F20001CA6940F00400B7
:100E500042F00102CA613169C9070BD042F65861FC
:100E6000C2F20001CA6942F00402CA61316921F08C
:100E7000010131613060012001B0F0BD3068C00770
:100E8000B6D0002FFAD000F0BDF9401BA042F5D932
:100E9000C8E70000002200F0AFB90000012200F016
:100EA000ABB90000B0B5044600F0ACF9054640F21D
:100EB0000800C2F200000078611C18BF044400BFA3
:100EC00000F0A0F9401BA042FAD3B0BD42F21001DD
:100ED000C4F20201086840F0800200200A607047F6
:100EE0002DE9F04F81B01C4642F65863C2F2000370
:100EF00091461A7E012A03D1022001B0BDE8F08F8D
:100F00000746012018764CF250300E46FFF764FF7A
:100F100042F65862C2F2000200283DD142F21005AA
:100F20003846C4F20205022F18BF04205FFA80FB86
:100F30004FF0000A4FF000080023CAF12001D361EE
:100F400029FA0AF004FA01F12A680843BAF12001EB
:100F500058BF24FA01F042F00101296030804CF2C0
:100F60005030FFF739FF296821F00101296078B975
:100F7000012F0DD008F101085FFA88F142F658629E
:100F800002368B450AF1100AC2F20002D4D803E0FF
:100F900042F65862C2F200020021117601B0BDE8AB
:100FA000F08F000042F20400C4F20200C16809069A
:100FB0005CBF0020704740F22311C4F2675101600A
:100FC00048F6AB11CCF6EF510160C068C0B2C00961
:100FD000704700007047000040F21441C4F2010164
:100FE0000A68024214BF08607047FFF7F3BF0000B1
:100FF0002DE9F04F82B00E68002E00F0F98040F22B
:101000000C4C40F2004E41F20042C4F2010CC4F21A
:10101000010EC4F201020427002401234FF0000A4C
:101020004FF00009904208BF0327009748E041F2C3
:101030000002C4F20102009F904208BF022704F0A0
:101040000C030F229A402BEA020207FA03F34FEA3D
:101050009A051A4346F825204E68F203DEF8002070
:1010600054BF22EA080242EA0802CEF80020DEF865
:101070000420B30354BF22EA080242EA0802CEF871
:101080000420F302DEF8082054BF22EA080242EAF4
:101090000802B302CEF80820DCF800204FF001036C
:1010A00054BF22EA080242EA0802CCF800200E6887
:1010B0000AF1010A36FA0AF204F1040400F09880F9
:1010C00003FA0AFB16EA0B08F1D04E684FF6FF72DE
:1010D000C1F21002964211DC122E51D8DFE806F060
:1010E000340A494650505050505050505050505073
:1010F00050424D00D1F80C9042E000BF4FF6FF7215
:10110000C1F2210296420FDC0022C1F21102964286
:101110001AD00022C1F21202964215D00022C1F26A
:101120002102964210D02BE00022C1F22202964208
:101130000AD00022C1F23102964205D00022C1F24B
:10114000320296421CD100BF8A6842B1012A14BF04
:10115000C0F814B0C0F810B04FF0080910E04FF01C
:1011600004090DE0CA6802F1040909E04FF0000922
:1011700006E0CA6802F1080902E0CA6802F10C0937
:1011800002462646B8F5807F24BF0432203E176809
:101190000F25B54027EA050509FA06F6354315601F
:1011A000CA79D2067FF583AF41F21803C4F2020375
:1011B0001A68AEF57E7642F001021A601A6802F0F3
:1011C00001020192019A2AF0030256F802B040F699
:1011D0000002C4F20102904208D040F60042C4F27C
:1011E000010290427FF423AF012728E7002726E77A
:1011F00002B0BDE8F08F0000002A08BF09040161B9
:101200007047000043F22440C2F2000000687047BB
:1012100040F2080043F22441C2F20000C2F2000191
:1012200000780A68104408607047000080B542F2F8
:101230000000C4F20200016841F0100101600320C7
:1012400000F0A2F8002000F005F800F02BF80020D4
:1012500080BD0000B0B540F20802C2F2000240F2C8
:1012600004011278C2F200014FF47A730968B3FBEB
:10127000F2F20446B1FBF2F1084600F00BFB0F2C32
:101280004FF001050CD858B94FF0FF30214600222D
:10129000002500F04DF840F20C00C2F2000004609E
:1012A0002846B0BD82B041F21800C4F202000168C5
:1012B000022241F001010160016801F00101019188
:1012C0000199416841F080514160406800F08050D0
:1012D000009000980420C4F20100016862F31A61D2
:1012E000016002B070470000002848BF704700F05E
:1012F0001F01012202FA01F11C2202EAD0004EF283
:101300008022CEF20002815070470000002848BFC2
:10131000704700F01F01012202FA01F11C2202EACB
:10132000D0004EF20012CEF2000281507047000051
:1013300010B54EF60C5CCEF2000CDCF80030C3F3B6
:10134000022E8EF00704042C28BF0424BEF10303F0
:101350004FF0FF3E0EFA04F438BF0023A14399403A
:101360000EFA03F39A43114300F1604200F00F03B9
:10137000090102F56442043B6344002848BF03F1BD
:101380000C02117010BD00004EF60C51CEF200019F
:101390000A684FF6FF031A4060F30A2242F08060A9
:1013A00040F0FD7008607047002804BF01207047BE
:1013B0002DE9F04381B042F20008C4F2020804466D
:1013C000D8F800000D4600F0070088420CD2D8F88B
:1013D000000020F007002843C8F80000D8F80000FB
:1013E00000F00700A8426BD1206841F20409810790
:1013F000C4F2020917D5410705D5D9F8001041F408
:10140000E061C9F80010010705D5D9F8001041F4D2
:101410006051C9F80010D9F80010A26821F0F0015D
:101420001143C9F80010C00741D1D8F8000000F0FE
:101430000700A8420CD9D8F8000020F00700284384
:10144000C8F80000D8F8000000F00700A84237D123
:101450002068410707D5D9F80010E26821F4E0615F
:101460001143C9F80010000708D5D9F80000216918
:1014700020F4605040EAC100C9F80000D9F800200B
:1014800002F00C00082841F20020C0F27A0049D195
:1014900049F26273C2F38341C0F60003595CD20380
:1014A00034D440F60010C0F23D0048433AE0606892
:1014B00059F8041C022807D0012824D1890305D437
:1014C000012001B0BDE8F0838901F9D5D9F80010F9
:1014D00021F003010843C9F80000FFF793FE064618
:1014E00041F28837D9F80000616800F00C00B0EBD9
:1014F000810F9AD0FFF786FE801BB842F2D90320F5
:1015000001B0BDE8F0838907DAD5DFE7D9F800201C
:1015100049F24873C2F34042C0F600039A5C484364
:10152000B0FBF2F0D9F8001049F24A72C1F303118E
:10153000C0F60002515C40F2040220FA01F140F2D0
:101540000C00C2F200000068C2F200021160FFF756
:1015500081FE002001B0BDE8F0830000002804BF38
:10156000012070472DE9F04182B00446007841F235
:101570000006C007C4F2020647D0706800F00C00F5
:10158000042808D1306880033FD56068E8BB01209B
:1015900002B0BDE8F081706800F00C00082802D1AC
:1015A0007068C003EED4656830682DB1B5F5A02F22
:1015B00009D0B5F5803F0AD020F480303060306823
:1015C00020F4802005E040F480203060306840F452
:1015D00080303060FFF716FE002D054612D000BFA8
:1015E0003068800311D4FFF70DFE401B6428F7D943
:1015F00016E100BFFFF706FE401B64284FF0030012
:1016000000F2D88030688003F4D42078800719D5A0
:10161000706810F00C0F07D0706800F00C000828FC
:1016200027D17068C00324D43068800703D52069AF
:10163000012840F0A6803068616920F0F80040EA97
:10164000C1003060207800074ED5A06938B3002073
:10165000C4F242200121C0F88014FFF7D3FD0546F3
:10166000706A80072DD4FFF7CDFD401B0228F7D903
:10167000D6E02069002840F20000C4F2422000F0C9
:10168000A88001210160FFF7BDFD05463068800795
:10169000D1D4FFF7B7FD401B0228F7D9C0E00020E6
:1016A000C4F242200021C0F88014FFF7ABFD0546CC
:1016B000706A800718D5FFF7A5FD401B0228F7D9EF
:1016C000AEE040F20400C2F20000006844F6D351DC
:1016D000C1F26201A0FB0101480A019000BF01981C
:1016E000411E00280191F9D12078400717D4E569FF
:1016F0008DB1706800F00C00082846D1012D40D053
:101700007068216A00F480328A423AD1616A00F43A
:101710007010884235D1002002B0BDE8F081F06938
:101720005FEAC00808D4F06940F08050F061F069C9
:1017300000F080500090009847F20007C4F20007C4
:101740003868C0050FD4386840F480703860FFF7FF
:1017500059FD05463868C00505D4FFF753FD401B09
:101760006428F7D95CE0E568306A1DB1052D41D0E9
:10177000012D43D020F001003062306A20F00400D7
:101780003EE0012002B0BDE8F0810027C4F242270C
:1017900000203866FFF736FD022D05460ED100BF4A
:1017A0003068800153D5FFF72DFD401B02284FF014
:1017B0000300F5D902B0BDE8F08100BF30688001B8
:1017C000A9D5FFF71FFD401B02284FF00300F5D9F4
:1017D000F0E700210160FFF715FD0546306880073E
:1017E0007FF530AFFFF70EFD401B02284FF00300DE
:1017F000F4D9DFE740F004003062306A40F00100C5
:101800003062FFF7FFFC002D054641F2883712D009
:10181000306A800712D4FFF7F5FC401BB842F7D9B5
:10182000032002B0BDE8F081FFF7ECFC401BB8429A
:101830004FF00300BED8306A8007F5D4B8F1000F2E
:101840003FF555AFF06920F08050F0614FE7206A16
:10185000B0F5803F05D17168A26821F400311143D1
:1018600071607168626A21F47411114308437060F9
:1018700001203866FFF7C6FC044600BF30688001CF
:101880003FF549AFFFF7BEFC001B02284FF00300F5
:10189000F4D98FE7411E0020B0EB116F1CBF01206F
:1018A00070474EF21002CEF2000251604EF6235104
:1018B000CEF20001F0230B70072190601160704799
:1018C00090F83C20012A4FF0020234D010B50123D9
:1018D00080F83C3080F83D200268D2F804E0D2F86D
:1018E00008C00C682EF07003234340F2FF74C4F26A
:1018F0000004A242536005DCB2F1804F0ED040F2EA
:10190000004307E042F60043C4F201039A4205D0C7
:1019100040F60003C4F200039A4204D149682CF057
:101920008003194391600121002280F83D1080F866
:101930003C20BDE81040104670470000002804BF5E
:10194000012070472DE9F04F81B090F83D2042B959
:10195000002280F83C2004460D4600F08DF8294610
:101960002046022280F83D20026844F20705936871
:1019700042F6004CAB43936040F2FF731468C4F22C
:1019800000039A42C4F2010C05DCB2F1804F0AD088
:1019900040F2004503E0624505D040F60005C4F280
:1019A0000005AA4203D1856824F070042C439A42B2
:1019B00005DCB2F1804F0AD040F2004303E06245FB
:1019C00005D040F60003C4F200039A4204D1036933
:1019D00024F4407543EA050424F080038469D0F8B8
:1019E00004E0C568234362451360D562C2F828E06D
:1019F00002D14369CCF830304FF00109C2F814909D
:101A00009568D2F818E0D2F820C0D1E90048D1E9B1
:101A1000027B44EA050A8D694FF6FF732EEA030E36
:101A200047EA05274FF6FC45AF43D1E907544BEA97
:101A30000E030E693B4343EA05232CF02207496954
:101A400043EA061347EA080743EA043347EA011169
:101A5000C2F808A09361116280F8469080F83E9029
:101A600080F83F9080F8429080F8439080F83D9055
:101A7000002001B0BDE8F08F80B586B040F60001CF
:101A80000068C4F2000100228842CDE904220392DA
:101A9000029201D006B080BD41F21800C4F20200EB
:101AA000436843F004034360436803F00403019375
:101AB000019B036843F008030360006800F008001E
:101AC00001900198C020CDE9020201F5823002A9FF
:101AD0000492FFF78DFA06B080BD000080B590F843
:101AE0003E2090F83F3090F842E090F843C004293F
:101AF00009D099B9012A4FF0010208BFBEF1010FC8
:101B000022D0104680BD012B4FF0010208BFBCF16E
:101B1000010FF6D1022280F83F2012E0012A4FF097
:101B2000010208BF012BECD1BEF1010FE9D1BCF1DC
:101B3000010FE6D1022280F83E2080F83F2080F895
:101B4000422080F8432004E0022280F83E2080F802
:101B5000422002680429136A04D031B923F001013C
:101B600001230DE023F0100109E023F001011162CF
:101B7000116A41F001011162116A21F01001102374
:101B80001162116A1943116200680022016841F074
:101B900001010160104680BD40F60841C4F2010118
:101BA0000A6811040ED002F01001012383EA11111A
:101BB000130758BF0231930758BF0431D20708BF3B
:101BC000083100E0002101380F2819D8DFE800F0C3
:101BD000081918181818181418181818181818248C
:101BE000C8B208280CD343F21C40C2F200000178AE
:101BF00041F0020101707047880748BF03F0ECB85C
:101C000070474807FCD543F21C40C2F2000001783F
:101C100041F0080101707047C80708BF704743F2E0
:101C20001C40C2F20000017841F0200101707047B1
:101C300010B543F2EC30C2F200000078012805D064
:101C400043F21A40C2F20000007800B110BD40F625
:101C5000084043F2DC01C4F20100C2F20001006856
:101C600091F84810490658BF80F4E050010408BFBD
:101C700010BD49F2787C0021C0F6000C4FF0010E37
:101C8000002200BF3CF811300EFA01F4184201F1B5
:101C9000010118BF22430329F4D11006D6D003F066
:101CA0009BF80120BDE8104006F034BF40F60C0060
:101CB00043F2E832C4F20100C2F200020168128865
:101CC00062F302010160704770B542F6CB46C2F282
:101CD00000063078002818BF70BD40F60C0243F2B1
:101CE0004014C4F20102C2F200041368A58B2C2137
:101CF000ED0865F3C503C4F2000113606FF0010342
:101D0000C1F8E4331368658B23F007034EF200102B
:101D10002B43CEF2000013604FF00052026001220C
:101D20003270626B002A67D142F6D872C2F20002AA
:101D3000137842F6D972C2F200021578AB421CD178
:101D40004FF08051C0F88010BFF34F8F002043F256
:101D5000DC05BFF36F8F3070C2F2000595F83600D6
:101D6000FF2800F0C18043F2EC31C2F20001097893
:101D7000042940F0D2800021D2E0127842F6D863E4
:101D8000C2F2000303EBC20045886063013D0D60B1
:101D900094F82E50017933F832208D42A28512D06A
:101DA00043F2781284F82E1001EB8101C2F2000296
:101DB00002EB8101CA6821635108C4E90011C4E93A
:101DC0000211C4E90411216B43790D6842F6CC4C31
:101DD000DD4025624D68C2F2000CDD40656291F87D
:101DE00010E0BCF800208968C08882EA0E02D94061
:101DF000A283A16205F0CAFC43F21840C2F20000BF
:101E00000078012808BF03F061FE0020216B608389
:101E10002068226ACB68024443F200409A42C2F230
:101E2000000022600CD9D21A22600A7C0125120718
:101E300003684FF0FF32658358BF01221A440260E5
:101E40006368656ACA682B44934263600ED99A1A24
:101E500062600A7C658BD20645F0020543684FF04C
:101E6000FF32658358BF01221A444260A368A56A05
:101E7000CA682B449342A3600ED9097C658B9A1AD9
:101E8000890645F00405A26082684FF0FF31658342
:101E900058BF01211144816043F2EC30C2F20000CE
:101EA0000178042903D1C088618B08406083A08D2C
:101EB00001380104A0850CD10020606342F6D9707E
:101EC000C2F2000001780131CAB2203A18BF0A46B6
:101ED000027043F2E830C2F200000088618B484093
:101EE00060830020307070BD43F21A4143F2EC323F
:101EF000C2F20001C2F20002097812780029A2F1B0
:101F00008003B3FA83F318BF01215B091943012948
:101F10004FF0000104D1042A02D000F049FF012152
:101F200095F8480000F00400B1EB900F41F200007A
:101F3000C4F201004FF4004102D0FEF7AFFF01E010
:101F4000FEF7A8FF206B407C10B1002005F01EFCBE
:101F50000420BDE8704006F0F5BD000080B53E28C5
:101F600008DC182831D021280DD10820BDE8804098
:101F700006F0E8BD3F282CD07E2804D10220BDE821
:101F8000804006F0DFBD41B2B1F1FF3F26DD43F2F4
:101F9000D90CC2F2000C9CF800E00EF10101CBB2AA
:101FA000FE3B18BF0B4643F2DA01C2F2000109788A
:101FB000DAB28A4208BF80BD42F6DB71C2F200018C
:101FC00001F80E008CF8003080BDBDE8804002F0C2
:101FD00003BF0120BDE8804006F0B4BD84381D2851
:101FE000F2D8DFE800F010290F0F0F0F0F0F0F0FBF
:101FF0000F0F443F1F35494E625D0F1A3A241553A7
:10200000580F6C67E0E72020BDE8804006F09ABDDD
:102010000820BDE8804006F071BD0120BDE8804089
:1020200006F06CBD0420BDE8804006F07FBD0420B2
:10203000BDE8804006F062BD43F2EC30C2F2000021
:1020400000788006C0D54020BDE8804006F07ABD0B
:102050000820BDE8804006F069BD0220BDE8804050
:1020600006F04CBD0220BDE8804006F05FBD0120B7
:10207000BDE8804006F05ABD1020BDE8804006F063
:1020800055BD2020BDE8804006F050BD1020BDE8C1
:10209000804006F033BD2020BDE8804006F02EBD14
:1020A0008020BDE8804006F041BD4020BDE8804072
:1020B00006F03CBD8020BDE8804006F01FBD4020FA
:1020C000BDE8804006F01ABDFEE700002DE9F04FA4
:1020D000B1F801B09BFAABF3B3FA83F33BFA03F721
:1020E0004DD040F2011C4FF0011E4FF00F0A4FF08F
:1020F00003084FF0040903E001333BFA03F23ED03A
:102100002BFA03F5ED07F7D0B3F108050EFA05F544
:1021100045F0806538BF0CFA03F52A0A4E680F694E
:10212000C46892FAA2F2B2FA82F224EA152407FAFB
:1021300002F2224395FAA5F4C2602F0EB4FA84F499
:102140003A58A5000AFA05F4A24306FA05F442EA51
:1021500004063E504A6842F00802092ACCD18A6837
:1021600008FA05F426EA0404AA402243C251CC68C6
:1021700009FA05F6B243AC402243C251BCE7002045
:10218000BDE8F08F41F2040CC4F2020CDCF8002030
:1021900002F00C02082A41F20022C0F27A0215D1A4
:1021A000DCF80030DB0304D440F60012C0F23D023C
:1021B00006E0DCF80030C3F340430133B2FBF3F236
:1021C000DCF80030C3F3834302335A430260DCF887
:1021D000003049F24A71C3F30313C0F60001C95C31
:1021E00049F25A7322FA01F14160DCF80020C0F68E
:1021F0000003C2F302229A5C21FA02F28260DCF848
:102200000020C2F3C2229A5CD140C1607047000036
:1022100080B58A688446087BD1E900E322F47C42D9
:10222000104323F4784210432EF470421043CA89BD
:102230004B6909696FF35F3221F440410843104351
:1022400040EA03010020CCF8441080BD80B540F284
:10225000FF7E0368C4F2000E42F6004C0246704551
:10226000C4F2010C05DCB2F1804F0AD040F200400C
:1022700003E0624505D040F60000C4F2000082424F
:1022800003D1486823F070030343724505DCB2F1C3
:10229000804F0AD040F2004003E0624505D040F68E
:1022A0000000C4F20000824203D1C86823F44073E6
:1022B0000343136088686245D0620888906202D147
:1022C0000869CCF83000506940F0010100205161EC
:1022D00080BD00002DE9F041FF294FF001033EDCF5
:1022E00001296BD0102940F0DA80016A6FF01006E6
:1022F00021F010010162036A4168D0F818C0156925
:1023000023F0300306EA0515D2E900E42B4342F638
:102310000045C4F20105A84243EA041316D102F1B4
:10232000140898E860016FF0400723F0C003946838
:1023300007EA85152B4343EA8413B40040F60305EE
:1023400021F44061AC43214341EAC8012CF4E64743
:1023500047EA0E2741608761D16881639DE0B1F54E
:10236000807F61D0B1F5805F40F09980016A42F6CC
:10237000004621F480510162046A4368C169D2E9D0
:1023800000EC1569C4F20106B04204D1966923F449
:10239000804343EA861321F4E6412D0341F6FF769C
:1023A00041EA0E2124F44054B5434360C1612C43FB
:1023B000D16844EA0C32016402626FE0016A21F0E4
:1023C00001010162036A4168D0F818C0156923F061
:1023D000030325F00105D2E900E42B4342F6004552
:1023E000C4F20105A84243EA040314D102F114081F
:1023F00098E860016FF0040723F00C03946807EA83
:1024000085052B4343EA840321F4407126F40074CC
:10241000214341EA48012CF0730747EA0E07416067
:102420008761D168416338E0016A40F2FF1621F408
:1024300080710162036A4168D0F81CC0156923F4F9
:1024400040732D02B543D2E900E42B4342F6004528
:10245000C4F20105A84243EA042316D102F114088C
:1024600098E8600140F2FF77AD0223F4406394687E
:10247000BD432B4343EA8423340142F20F0521F488
:102480004051AC43214341EA48112CF0730747EA1D
:102490000E074160C761D168C1630362002318461B
:1024A000BDE8F081B0B584B00446C06880045BD458
:1024B000E0680D4641F20C618843D5E9011CD5E97D
:1024C0000332084318431043D5F814E0E060206954
:1024D00020F4405040EA0C002061606920F4407014
:1024E00040EA0E0060616846FFF74CFE44F200408F
:1024F000C4F2000084420FD044F60000C4F2000091
:10250000844209D043F60000C4F2010084420CBFAB
:102510000398002010B927E0029828B3296819B35E
:10252000192250438900B0FBF1F048F21F51C5F267
:10253000EB11A0FB01235A094FF69C73C0F6FF7301
:1025400002FB0300322303EB0010A0FB0101F0208B
:1025500000EA511000EB0210C1F3431180B20844AD
:10256000A060002004B0B0BD012004B0B0BD0000E8
:102570002DE9F04F85B04FF0000A41F21800CDE987
:1025800003AACDE901AAC4F20200016840F60008DE
:1025900041F0100101600168C4F2010801F010016E
:1025A00000910099016808F5006741F02001016081
:1025B0000168002201F0200100910099016841F0BA
:1025C00004010160016801F00401009100990168B3
:1025D00041F00801016000684FF4604100F008001C
:1025E000009000983846FEF707FE404641F6FF018E
:1025F0000022FEF701FE08F5806528464FF4487179
:102600000022FEF7F9FD4FF4C0400190022001AE18
:10261000012403904FF0030B384631460294CDF865
:1026200010B0FEF7E5FC4FF4004938463146CDE9DD
:102630000194CDE903ABFEF7DBFC41F6FF0001A9F5
:1026400081E8110C40463146FEF7D2FC41F61B40B2
:1026500001900020C1F22100CDE902042846314654
:10266000FEF7C6FC0220039040463146CDE9019AB0
:10267000FEF7BEFC4FF4487001A981E8110C284612
:102680003146FEF7B5FC282000210022FEF750FE5F
:102690002820FEF73BFE05B0BDE8F08F70B59AB07C
:1026A000002541F21806CDE91755CDE91555CDE9BC
:1026B0001355CDE91155CDE90F55CDE90D55CDE9AE
:1026C0000B55CDE90955CDE90755CDE90555CDE9BE
:1026D0000355CDE90155C4F20206306842F60044C4
:1026E00040F4006030603068C4F2010400F400601F
:1026F0001990199841F61F40CDE9160514A92046F6
:10270000ADF8505015951895FFF7A0FD20680CAA5C
:1027100020F080002060A069012140F00800A06145
:102720006020CDE90C052046CDE90E55CDE91055C8
:10273000CDE91255FFF7CEFDA06906A920F00400EF
:10274000A061606820F070006060A06820F08000E8
:10275000A0604FF40050CDE90A052046ADF82650A0
:10276000CDE9065508958DF82450FFF751FD3068E6
:1027700001A940F004003060306800F004001990B6
:1027800019980120C0F20140019009200290022016
:10279000CDE9030540F60000C4F20100FFF796FC06
:1027A0001AB070BD10B586B0002041F21C01049033
:1027B000CDE90200CDE90000C4F202010A684FF041
:1027C000804442F001020A6009684FF0805201F033
:1027D0000101059105994EF60C51CEF200010968F0
:1027E0004EF20011CEF2000181F81C030A604FF690
:1027F000FF71ADF800000190CDE9021069464FF07D
:102800008040FFF723FD206844F2070220F080009B
:1028100020600820C4F2000001689143016050F874
:10282000041C21F0700140F8041C016821F08001B3
:10283000016006B010BD000010B586B0002041F266
:102840001C010490CDE90200CDE90000C4F20201B0
:102850000A6840F2084442F002020A6009684FF038
:10286000005201F00201059105994EF60C51CEF28D
:10287000000109684EF21D41CEF2000108704EF2CF
:102880000011CEF200010A604FF6FF71C4F200049D
:10289000ADF800000190CDE90210A4F108006946EE
:1028A000FFF7D4FC54F8080C44F2070120F0800034
:1028B00044F8080C20688843206054F8040C20F089
:1028C000700044F8040C206820F08000206006B0FE
:1028D00010BD0000B0B58CB003AC20462421FDF73C
:1028E00028FC42F6685040F60001C2F20000C4F233
:1028F00000010025032280E8260001214FF6FF7326
:10290000CDE90325CDE905150F22CDE909152146AD
:10291000CDE90055C0E903358561CDE907250B9266
:10292000FFF70CF8002818BFFEF740FA42F668508F
:10293000C2F200006946CDE90055FEF7C1FF00284C
:1029400018BFFEF733FA0CB0B0BD0000F0B58DB083
:10295000002641F21800CDE90A66CDE90866CDE906
:102960000666CDE90466CDE90266CDE90066C4F2EB
:102970000200016840F6000441F4804101600168F2
:10298000022701F480410C910C990168C4F2010402
:1029900041F00401016000686D4600F004000C90F5
:1029A0000C98092001900320C0F2024702902046B3
:1029B00029460097FFF78AFB07F1021000900420D8
:1029C000019020462946FFF781FB4EF60C50CEF2CF
:1029D000000000684EF22540CEF2000006704EF274
:1029E0000410CEF20000202101604FF4E130CDE967
:1029F00005060C20CDE9090604F5405005A9CDE9EE
:102A000007660B96FFF74EFD43F60C00C4F201007B
:102A1000416821F490414160816821F02A01816080
:102A2000016841F4005101600DB0F0BDFEE7000007
:102A300070470000704700007047000080B543F207
:102A4000DC00C2F2000090F860004FF40071421EFA
:102A500040F60040C4F2010018BF0122FEF7CCFB93
:102A600042F64440C4F20100016821F400410160D3
:102A700080BD000080B543F2DC00C2F2000090F897
:102A800060004FF400710138B0FA80F0420940F65E
:102A90000040C4F20100FEF7AFFB42F64440C4F22E
:102AA0000100016841F40041016080BDFEF7B0BB48
:102AB00041F20000C4F202000168002241F001016D
:102AC00001604168CFF6FF021140416001684FF696
:102AD000FF72CFF6F66211400160016821F4802197
:102AE0000160416821F4FE0141604FF41F018160E3
:102AF0004EF60850CEF200004FF0006101607047C2
:102B00001020C4F200000168C90708BF70476FF0C9
:102B10000101016000214161FFF7D6B840F2104089
:102B2000C4F200000168C90708BF70476FF00101D7
:102B30000160002141614EF28010CEF200004FF0A2
:102B400000510160BFF34F8FBFF36F8FFFF7AEB837
:102B500010B543F60004C4F20104E068800658BFD3
:102B600010BD6068C0B2FFF7F9F96FF02000206077
:102B700010BD0000FEE70000F0B581B00C6805460E
:102B800002F0DCFF20460021FDF73BFDC0BB2046E4
:102B90004FF07E51FDF75FFD002818BF4FF07E54C7
:102BA000FF2D16D0022D2BD843F2DC01C2F200011A
:102BB00040F2104001EB8501C2F20000896900EB90
:102BC000850640F825402046FDF723FBF06001B064
:102BD000F0BD40F21040C2F20000051F43F2DC00DD
:102BE000C2F2000000F11406032700BF56F8041FCC
:102BF000204645F8044FFDF70CFB013FE860F5D196
:102C000001B0F0BD2DE9F041804600256FF00304CE
:102C100008EB0400466800213046FDF72AFD074610
:102C200030463146FDF7F5FA2946FDF79AFA002FAE
:102C300004F1040408BF0546082CE9D1284606F033
:102C400033FD05464FF07E502946FDF714FB06463E
:102C50006FF0030408EB040779683046FDF7D9FAF2
:102C60000434082C7860F5D12846BDE8F0810000D6
:102C700041F20C00C4F20100016800680222C1F3B5
:102C8000403102EA503008447047000010B541F26C
:102C90000004C4F2010420464FF40051FEF7FAF894
:102CA00020464FF48041BDE81040FEF7F3B8000025
:102CB000B0B543F2EC35C2F200056978002918BFBF
:102CC000B0BDC8B141060AD541F20001C4F201010C
:102CD000044608464FF40051FEF7E0F8204640B2A3
:102CE000B0F1FF3F16DC41F20000C4F201004FF4E6
:102CF0008041FEF7D3F80DE041F20004C4F2010474
:102D000020464FF40051FEF7C5F820464FF48041AD
:102D1000FEF7C0F800202873B0BD000010B541F2E6
:102D20000004C4F2010420464FF40051FEF7B2F84B
:102D300020464FF48041BDE81040FEF7ABB80000DC
:102D4000B0B543F2EC35C2F20005297802292ED045
:102D5000044602F0F3FE6878002818BFB0BDB4B195
:102D6000600607D541F20000C4F201004FF40051A3
:102D7000FEF794F860B2B0F1FF3F16DC41F20000BC
:102D8000C4F201004FF48041FEF788F80DE041F2F3
:102D90000004C4F2010420464FF40051FEF77AF813
:102DA00020464FF48041FEF775F800202873B0BD2F
:102DB0007047000070B50C460021C4F2A011FDF769
:102DC00028FA06F045F9FDF7CEFCC0B143F2EC3627
:102DD0000546C2F200060BE002F0CAFEB07880079A
:102DE00048BF70BD3220013DFEF75CF8280406D0D4
:102DF000707820B9002CEFD103F09AF8F2E770BD9B
:102E00002DE9F0414FF60044C0F600044FF6FF757F
:102E1000FEF7C8F82046FDF7CBFF4CF25030FDF727
:102E2000DBFF42F21000C4F20200016840F210061B
:102E300021F00201C2F200064FF480674FF6FC78E1
:102E4000016006E007EB080087B2043604F10404D1
:102E500087B13288AA4204D0012021460023FEF720
:102E60003FF87288AA42EDD0A11C01200023FEF792
:102E700037F8E7E7BDE8F041FEF728B840F2100167
:102E8000C2F20001085C704780B540F210014FF6B5
:102E900000420020C2F20001C0F60002835C0B5425
:102EA0000130B0F5806FF9D108780D2808BF80BDDA
:102EB00040F21000C2F200004FF48061FF22FDF7E3
:102EC00031F980BD40F21002C2F200021154704785
:102ED0002DE9F04F97B042F6D444C2F20004054603
:102EE00020464C21FDF725F942F62053C2F200039B
:102EF000D3E90001D3F80B209B68E260C4F80930E5
:102F0000C4F80510C4F80100287824280B9006D1D5
:102F1000012001210A900320A4F8011002E0002101
:102F200000200A9115F800B08DF85B00BBF1000F8E
:102F300000F0468242F6D4474FF0000A4FF00008F6
:102F40000021C2F20007CDE90C110E91ABF15B013B
:102F500011F11A0FC0F0668201308DF85B0028462F
:102F60000DF15B0115AA03F071F9002800F05E82F3
:102F7000159C204606F0AEFB8146FDF7F4FB0646A5
:102F8000FDF7DFFB01462046FDF73DF90021C4F2C5
:102F9000C821FDF73EF906F063FAFDF7E4FBABF15B
:102FA00045020146152A4FF0140000F2E987DFE8D8
:102FB00012F01600A5003B00E707A8001A00B200B7
:102FC0003700BC002100E707AF0033012700B9003C
:102FD0002A00E707E707E70736012C013D0187F8DC
:102FE0004460102028E10D98BC6140F002000D9073
:102FF000022021E14846FDF7B6FB786205201BE17F
:10300000FC62072018E100212046C4F27F31FDF761
:1030100022FB002840F07E8387F8346009200BE112
:1030200087F82060042007E15E2E00F2A9870722BE
:10303000DFE816F01F011F011F011F014B01A6074A
:10304000A607A607A607A6074401A607A607A60780
:10305000A607A607A6075A015A015A016901690184
:10306000A607A607A607A607A607A6074401A60760
:103070004401A607A607A607A607A607A607A60750
:103080001F01A607BA01A607A6076101A607A607A2
:10309000A607A607A6076101A607A607A6074B0174
:1030A0005F005F005F005F005F005F00A607A70191
:1030B000A607A607A607A607A607A607A607A607A8
:1030C000A607A607A607A607A607A607A607A60798
:1030D000A607A6072501A607A607A607A607A6070F
:1030E000A607A607A607A6077301730144016E0190
:1030F0006E01A6F13600F871092255E13C6100200D
:103100009AE00D987C6140F001000D90012093E061
:10311000BC62062090E00D98FC6140F004000D9028
:10312000032089E03C63082086E0002940F0B28259
:10313000642E00F225870B21DFE816F00F011C0139
:10314000650012010601020122070B01FA000401C9
:103150002207220722072207220722072207220727
:103160002207220722072207220722072207220717
:1031700022072207220722076500220722072207CB
:1031800022072207220722072207220722072207F7
:1031900022072207220722072207220722072207E7
:1031A00022072207220722072207220722072207D7
:1031B00022072207220722071601FC002207220706
:1031C0000801FF0022072207220722072207220701
:1031D00022072207220722072207220722072207A7
:1031E0002207220722072207220722072207220797
:1031F0002207220722072207220722072207220787
:103200002207220719013E72B4E00E98FC6340F0D9
:1032100002000E900B200FE0BC6411200CE00E9811
:10322000BC6340F001000E900A2005E00E983C645B
:1032300040F004000E900C20012101FA00F616EA7D
:10324000080F40F00A8140F26130064206D0204665
:103250000021FDF7E4F9002840F0038148EA060860
:103260009DF85B0015F800B0BBF1000F7FF46EAE67
:10327000AEE05FEA0A6040F023834FF0020A262E98
:103280007E7036D1A1F114021E2A4FF0140000F214
:103290007786012303FA02F240F20143C4F21003DD
:1032A0001A4200F06D864CF6CD4048436FF0750130
:1032B00001EBD04078700021012275E029B95FEA66
:1032C0000A6040F0FD824FF0010A1C2E3E7018BFCC
:1032D0005C2E52D10A2902D0002940F0E9828819D7
:1032E0003870002200215FE0A6F1110078710222FF
:1032F0005AE0012258E05FEA0A6040F0E182312E94
:1033000044D1002046E0C6F11500F87006224BE0DB
:10331000C6F15E00B870052246E0002940D00A29B7
:1033200040F02E865A2E00F02B86002104223BE02E
:1033300040200FE0022038731BE00120B87318E032
:1033400000200EE0002005E020200AE00120787334
:103350000FE0802078720D210CE00320387209E024
:103360001020B8720C2105E00120387301E0012023
:10337000F8730F21012088401BE01E2EAAD00022E6
:1033800012E0002940F0FC850A220DE00A2940F0F5
:103390008F820120B8714FF0030A0021082203E058
:1033A000A6F15A0038710322002940F073810120F0
:1033B00090400C99084240F0718101430C914FE715
:1033C00000200E90CDE90C004FF000084FF0000AED
:1033D0005FEA0A60D14608BF4FF002090E9842F634
:1033E000D447002808BFD1465FEA8860C2F20007D0
:1033F0000AD5786A49F28061C0F29801884203DDFB
:103400001B2017B0BDE8F08F0B98242812D142F68C
:10341000205B5FEAC870C2F2000B2FD1162017B0F4
:10342000BDE8F08F012017B0BDE8F08F022017B083
:10343000BDE8F08FB87842F6205B0128C2F2000B9D
:1034400013D15FFA89F0022829D1787838B350284F
:1034500025D05FEAC870E1D021E0192017B0BDE89F
:10346000F08F042017B0BDE8F08F9BF80100B0B9D1
:103470005FEAC87002D1DBF814000FE0F878012889
:103480000DD13869FDF7BBF946F26663C4F2390322
:103490004FF06632FCF7D4FFFDF7C4F938615FEAFC
:1034A000C8505CBFDBF8100038633878042808D1B6
:1034B0005FEA486003D41C2017B0BDE8F08F28F005
:1034C000400897F805A0BAF1000F08D0BAF1010F33
:1034D00009D100204FF0020A0B90012008E00120E2
:1034E0000B90022004E002204FF0010A0B90002014
:1034F0000990F87801281CD146F2666407F1380576
:103500000026C4F2390404E00136032E05F1040557
:103510000FD00E98F040C007F6D02868FDF76FF97D
:103520004FF066322346FCF78BFFFDF77BF92860EE
:10353000EAE75FFA89F40E9D032C08D1B8790128D7
:1035400005D1042D03D0252017B0BDE8F08FDBF89E
:103550003410DBE90B02CDE913210C991290890597
:1035600032D43E785C2E41D00A2E79D1002D00F065
:10357000528318F0500F9ED0B86A06F0ABF8FDF7F2
:10358000F2F8062823D897F82010142906D002292B
:1035900040F08E815FEA086100F18A81F9790028A4
:1035A00018BF411E0891C8B207F1140103F0CCFD09
:1035B000002800F0E88497F82050DBF8444028F019
:1035C00050080027002682E0F879062803D91D203C
:1035D00017B0BDE8F08F9BF806108142C1D012A948
:1035E00003F0B2FD0028BCD100F0CDBC002D00F0EE
:1035F0001283DBF8444000250DF1480B002710E052
:1036000042F62050C2F20000284442F6D441806BBA
:10361000C2F200012944886304350C2D07F101072B
:1036200040D00E98F840C007EAD042F62050C2F2CF
:1036300000002844006A5BF80510FCF7E4FD42F640
:10364000D441C2F200014E1956F8381FFCF7DBFDD9
:10365000082D3060E0D12146FCF7D5FD3060DBE776
:10366000002D18BF032C59D1352E00F0D18042F621
:10367000D44542F620540A9F1E2EC2F20005C2F223
:10368000000400F0A7801C2E40F0CA8005F1140150
:103690000620A2E0172017B0BDE8F08F152017B064
:1036A000BDE8F08F42F6D4450A9F4FF0000BC2F2FE
:1036B0000005B7E042F6D440C2F200003844816B06
:1036C000416104370C2F06F1010600F002810E98CB
:1036D000F040C007F5D0142DECD142F62050C2F2D4
:1036E0000000C119086A896BFCF78DFD42F6D441D0
:1036F000C2F2000101EB070BDBF83810FCF783FD89
:10370000082FCBF81400DCD12146FCF77CFDCBF868
:103710001400D6E7262017B0BDE8F08F42F6D4405B
:10372000C2F20000077942F62050C2F20000406C5D
:103730004FF0000B0025089013E042F62050C2F233
:103740000000584442F6D441006AC2F200015944D4
:1037500088630BF1040BBBF10C0F05F101053FF47D
:1037600083AF0E98E840C007E7D0352EF1D087B17F
:1037700042F6205042F6D441C2F20000C2F20001EB
:10378000584401EB0B04006AA16BFCF7EAFCA06350
:10379000DFE742F62051C2F2000112A8594450F866
:1037A0000B00896BFCF7DDFC42F6D441C2F200014C
:1037B00001EB0B0454F8381F024608461146FCF78B
:1037C000D0FCBBF1080F2060C3D10899FCF7C9FCFD
:1037D0002060BEE705F11401072003F0B5FC0028C6
:1037E00000F0D1830E9800286ED005F1140004F18A
:1037F0002001002205E001320430032A01F1040116
:103800000ED00E9BD340DB07F5D10B680360F2E7C7
:1038100042F6D445C2F2000568780A9F01284BD8C9
:103820004FF0000B6C78502C0AD10E9842F62056BF
:103830000028C2F2000661D01F2017B0BDE8F08F4B
:103840005FFA89F002282ED142F62056002CC2F2EF
:1038500000064FD028690021FCF70BFF00287FF4F9
:10386000DDAD8B2C3DDDA4F18C00032846D8DFE8CC
:1038700000F00302030210370E98002800F0CB81FD
:1038800004F0FE008E2806F1200005F138014FF00B
:103890000C0208BF47F00807FCF756FC70BB21205C
:1038A00017B0BDE8F08F42F62056C2F2000625E0C0
:1038B000142017B0BDE8F08F1E2017B0BDE8F08FC0
:1038C000182017B0BDE8F08F4FF0000B4FF0000943
:1038D000A8E742F6D4450A9FDDF820B0C2F2000501
:1038E000A0E7012C06D0022C00F05181032C00F03F
:1038F0004F8103E00E98002808BF81466FF0210138
:10390000F80704BF4FF6DE41CFF6FF712B7B01EACB
:1039100008015FEA09644FF6214218BF914323B1C1
:103920004A067FF5C8AD21F061016A7B5AB1402299
:10393000C0F20202103211423FF4BDAD4FF6AF7239
:10394000CFF6FD721140AA7B2AB111F4403F3FF43B
:10395000B2AD21F44031EA7B5AB14022C0F20202FA
:1039600011423FF4A8AD4FF6AF72CFF6FD721032A0
:10397000114019B1242017B0BDE8F08F0021CDE926
:1039800010110F91B0B943F2DC00C2F2000090F8C0
:103990004800800746D568780138C0B2032828BFA0
:1039A00040370E9888B35FFA89F002282DD167F06E
:1039B0007F0737E00C996FF04900014203D01020D7
:1039C00017B0BDE8F08F2878352801D00028F6D14F
:1039D0003069317A727A42F6D444109041EA02009A
:1039E000C2F200048DF844000FA8214600F08CFBC1
:1039F000002840F0C58204F138030ECB06F1200CFC
:103A00008CE80E0017B0BDE8F08F707A102809D14D
:103A1000307820210138022801EA570088BF80F061
:103A200020000743A978686AF061717029B19DF898
:103A3000440040F008008DF844002969D5F8308032
:103A4000306971610F914146FCF713FE10B117F018
:103A500020000CD0707A40B1002F06D4402F28BF30
:103A60004FF00008414603F0E1FE286B3061780614
:103A70005CBF30691090A87A717A95F83420814241
:103A8000327604D0109903F0D1FEA87A7072317AA0
:103A9000727A9DF84430687A1A4381428DF8442046
:103AA00007D0FFF74DF9687A317A002818BF08432C
:103AB0003072307A9DF844102A780843042A8DF831
:103AC000440002D1A86A01F0A5F86879E9785FFAA4
:103AD00089F8B8F1030F3071B17010D1A8790028BE
:103AE000707104BF00202864D5F84090706C49467E
:103AF000FCF7BFFD18B9C6F8449004F0F3FFB179A4
:103B0000E879814207D012AAB07107CA06F12C03E6
:103B100007C304F0E7FF28782A79A0F10A011E29DB
:103B2000F27029D8DFE801F097B9B9B9B9B9B9B9D4
:103B3000B9B9B9B9B9B9B9B9B9B910B910B9B9B947
:103B4000B9B9B9B991B9A7009DF8440040F0010096
:103B50008DF8440024B105F138000FA901F096F862
:103B600005F114000FA901F091F805F1140207CA3C
:103B700006F1200307C390E05C2800F086806628E9
:103B800040F08B800020C6E90E00306483E00437EB
:103B90000E9ACDF820B00A97EAB3DDF82CB00120D8
:103BA00000FA0AF100FA0BF008431042079068D0BF
:103BB00005F1380406F1200754F82A0057F82A10B6
:103BC000FCF721FB54F82B2057F82B1006901046D9
:103BD000FCF719FB5FEA0861059000F19D800D98E4
:103BE000C5B20798284200F0328242F6D440C2F2B1
:103BF0000000C07828F08E08012840F0C88142F605
:103C0000D440C2F2000046F2666400F114060027B8
:103C1000C4F2390409E01A2017B0BDE8F08F01376B
:103C2000032F06F1040600F0B28125FA07F0C00761
:103C3000F5D03068FCF7E3FD4FF066322346FCF721
:103C4000FFFBFCF7EFFD3060E9E706F120010620FD
:103C500003F0FEFC21E05FFA8BF405F1140120462D
:103C600003F0F6FCB079A04217D105F1140207CA9F
:103C700006F12C030EE006F12001072003F0E8FC1A
:103C80000BE0202017B0BDE8F08F05F1380207CA1D
:103C900006F1380307C304F025FF68785028307018
:103CA00000F00481B8F1020F40F00081D8B1012882
:103CB0001FD000F0FE00022840F0E1800B99EC6A72
:103CC00002910999C7F38000CDE9031005F138008E
:103CD00006F1200205F114030FA9CDF804A0009409
:103CE00000F0C6FD0AE09DF8440040F001008DF8A8
:103CF000440005F138000FA900F0C8FF002001289A
:103D000000F0CC80002840F0D18005F1380207CACD
:103D100006F1200307C3C9E0384621460C22FCF710
:103D200013FA00283FF4BBAD42F6D440C2F20000C3
:103D3000C078012811D142F6D444C2F20004E06AEE
:103D4000FCF75DFD46F26663C4F239034FF066325C
:103D5000FCF776FBFCF766FDE06242F6D440C2F267
:103D60000000C06AFCF74BFD0023C4F210030022E0
:103D700004460F46FCF764FB834606980E46014650
:103D8000FCF747FAFCF73BFD05460D9158463146D6
:103D900022463B46FCF754FB0D9B2A46FCF74AFBA8
:103DA000044605980F460146FCF733FAFCF727FD59
:103DB00002460B4620463946FCF73CFBFCF732FD39
:103DC00000210446FCF72BFC002840F044812046EB
:103DD00028F08008FCF713FD05F040FC044681F054
:103DE0000047DDE9051000F069F9FCF708FD02461F
:103DF0000B4620463946FCF795FBFCF713FD42F6CF
:103E0000D442C2F200025178D76A044603293846E8
:103E10004FF0000108BF84F00044FCF70EFC40B9ED
:103E200042F6D44184F0004487F00040C2F2000121
:103E3000C862DDF814B021465846FCF7EAF9069F3F
:103E400001463846FCF7DFF94FF07C51FCF7E1F909
:103E500042F6D445C2F2000505F1140646F82A00E0
:103E600038462146FCF7D5F95946FCF77AF94FF068
:103E70007C51FCF7CEF90B9946F82100F3E09DF850
:103E80004400FAB240F004008DF8440005F1380017
:103E90000FA900F037FF01287FF434AF43F200414F
:103EA00006F12000C2F2000104F0D2FB287AF07182
:103EB000C8B301F043FEF07903280CD143F2EC3093
:103EC000C2F20000007802282BD0082004F03AFE4D
:103ED00002F02EF825E0012030800020A6F8030033
:103EE000B071308143F2EC30C2F20000027846F249
:103EF00064410181022A4FF0640181720ED006F103
:103F00002C01002003F020F9E8B304F0EBFD0020C1
:103F1000002103F047FC0020FEF7CAFE082002F053
:103F2000ADFA0020F0712C7B3CB1A86A05F0D2FB01
:103F3000FCF719FC214600F0CDFF687B50B1A86A60
:103F400005F0C8FBFCF70FFC95F8201005F14802BE
:103F500004F040FEA87B28B195F8440005F1480123
:103F600000F0B4FFE87B50B1A86A05F0B3FBFCF7A2
:103F7000FAFB05F14801FEF7FFFD01F0EDFA002024
:103F800017B0BDE8F08F072017B0BDE8F08F42F6FC
:103F9000D44BC2F2000B0BF1140555F82A10069809
:103FA000FCF731F90B9F044655F827100598FCF7EC
:103FB0002AF90146204600F081F855F82A2055F8E4
:103FC00027100446104600F079F80646CBF82C007E
:103FD00020463146FCF717F920F000473846FCF739
:103FE0000EFC41F27B4247F6E123C4F2AE72C3F607
:103FF000747304460D46FCF74AFB80BB38464FF00D
:104000007C51FCF728FB00287FF449AC3046FCF7D4
:10401000F6FB4AF6FC1246F24D23CDF2F122C3F62E
:104020005073FCF70DFA22462B46FCF74BFB42F689
:10403000D44542F620560A9FDDF820B00028C2F28F
:104040000005C2F200067FF42AACFFF757BC23201C
:1040500017B0BDE8F08F222017B0BDE8F08F42F610
:10406000D445C2F2000542F620560A9FDDF820B082
:10407000C2F20006FFF742BC10B542F62054C2F26D
:10408000000420464821FCF754F8A07904F12C01E3
:1040900003F05AF8002818BF10BD0720BDE81040F3
:1040A00002F0B8BF42F62050C2F2000043F20041D5
:1040B0002030C2F2000104F0CBBA0000B0B50446D3
:1040C0000846FCF7A6F8054620462146FCF7A1F86D
:1040D0002946FCF746F8BDE8B04005F0E5BA000017
:1040E00070B549F27E7640F600040025C0F6000661
:1040F000C4F2010436F815102046FCF7CBFE01355A
:10410000042DF7D170BD0000B0B50D460969044615
:10411000016043F2DC00C2F2000090F84800217A0E
:10412000800641F00400207207D505F1380004F044
:1041300025FA00281CBF0F20B0BD05F1380021462C
:1041400000F0A4FD43F2EC34C2F20004207808B180
:104150000020B0BD01F0BEF90028F9D02020207069
:1041600003F046FC04F080F90020B0BD2DE9F041D9
:104170004FF6FF750C468046C7F67F75002602E0B5
:1041800004360C2E15D0A75900213846FCF771FAD9
:104190000028F5D158F806003946FCF76CF820F0F5
:1041A000004728463946FCF73AFA002808BF3D4642
:1041B000E6E72846BDE8F0814EF28410CEF200001A
:1041C0004FF480710160BFF34F8FBFF36F8F704763
:1041D00010B540F6084043F2DC01C4F20100C2F21F
:1041E0000001006891F84810490658BF80F4E0507B
:1041F000010414D049F2787C0022C0F6000C4FF084
:10420000010E00213CF812300EFA02F4184202F1BD
:10421000010218BF2143032AF4D1C8B210BD002106
:10422000C8B210BD43F2EC31C2F200014978002956
:1042300018BF70472DE9F04F93B0024600240620C6
:1042400012948DF8480049F28670C0F6000001888B
:1042500040880DF13A0A089043F2DC00C2F20000F7
:1042600000F1240B0027CDE910440A91CDF804B0E9
:10427000099204E00134032C0BF1040B30D049F215
:104280008670C0F6000030F814000A99022C089BD2
:1042900018BF43EA010022FA04F1C9072AF8140002
:1042A000E8D03846FCF7ABFA8046DBF800008946D8
:1042B000FCF7A5FA00224FF04043FCF7C1F8424654
:1042C0004B4605460E46FCF7FDF98046284631462A
:1042D000FCF7A8FA099AB8F1000F08BF0746C9E72A
:1042E000BDF83A00BDF83C10BDF83E2008434FF63B
:1042F000FF714840079082EA0100069043F2DC001B
:10430000C2F20000503003210125029028E0042071
:1043100004F076F9002C40F0A08100BF03F0CCFF40
:1043200043F2DC09C2F20009B9F85400FEF740FD7F
:10433000D9F8584000212046C4F2A00185F00105BB
:10434000FBF767FF07460398002802980CBF09F1A6
:104350004C002746049A1106A2F1010100F02C81BD
:10436000006804910DF12C0943F200410590484684
:10437000C2F2000104F06CF915F0010087F000466C
:1043800003903846089518BF30460A9018BF3E463D
:10439000099A4FF0000800270025012323E000BF01
:1043A00043F20044C2F20004204604F087F9099A5F
:1043B0000123C4E9000043F2DC00C2F2000090F8DF
:1043C000490001351BEA000F0A9808BF30463AF849
:1043D0001810C9F800000F4308F10108B8F1030FE5
:1043E00009F104091ED003FA08FB1BEA020FF3D0FF
:1043F0005FFA88F00128D3D060B943F20044C2F2DA
:104400000004204604F060F9099A41420123C4E9FE
:104410000001D0E743F20040C2F2000000218160B9
:10442000C9E700BFE8B2FCF78CF905F03DF9014699
:104430000598FBF7EEFE43F2EC38C2F2000810904C
:104440000BA810A9A8F8067000F098FD042088F8C1
:10445000040003F0CDFA04F007F840F6084B089D7D
:1044600043F21C46C4F2010BC2F200065FEAC579B2
:1044700040D043F2DC01C2F20001DBF8000091F809
:104480004810490658BF80F4E050DDF818C0010418
:1044900012D049F2787600220021C0F600060124ED
:1044A00036F8123004FA02F5184202F1010218BF80
:1044B0002943032AF4D100E00021079B43F21C4664
:1044C000089DC8B20021C2F2000602E001310329B2
:1044D0000ED03AF811203A421CBF20FA01F25FEAEE
:1044E000C272F3D0022914BF1F4007EA0C07EDE7A0
:1044F000A8F8067003F07CFA307810F0340F03D17E
:104500007807B3D10AE700BF3578E80608D4A806D3
:104510000BD4B9F1000F0ED06807089D39D43BE0E9
:10452000062004F0F7FAA806F3D5072004F0F2FA03
:10453000B9F1000FF0D143F2DC01C2F20001DBF867
:10454000000091F84810490658BF80F4E05001047B
:1045500012D049F2787600220021C0F6000601242C
:1045600036F8123004FA02F7184202F1010218BFBD
:104570003943032AF4D100E000210998014202D016
:10458000082004F0C7FA05F00400089D15EA900F12
:1045900002D0092004F0BEFA43F21A40C2F2000031
:1045A0000478002C3FF4B3AE00F016FC01F0C0FC20
:1045B000002C3FF4B3AE50E043F2EC380999019F70
:1045C00000244FF0010AC2F2000810E043F2004557
:1045D000C2F20005284604F071F88119801BC5E974
:1045E000001009990134032C07F1040732D00AFAAC
:1045F00004F00842F6D099F84910084208D038680B
:10460000D9F85810FBF7ADFD57F8241C06E000BFA1
:10461000D9F8581057F8240C81F00041FBF7F9FD48
:10462000FCF7EDF804F0BAFEE1B201290646CDD060
:1046300051B943F20045C2F20005284604F044F89F
:104640008119301ACBE700BF43F20040C2F20000EC
:104650008660C6E7002088F8040013B0BDE8F04F7C
:104660007047000043F2DC00C2F2000090F84800FE
:10467000000748BF70474EF28410CEF200004FF49E
:1046800080710160BFF34F8FBFF36F8F70470000E1
:1046900010B503F073FFE8B143F2EC34C2F200044A
:1046A000207801210828E1700BD1082004F04AFA93
:1046B00001F03EFC6078002818BF10BD207800286B
:1046C000F6D100F089FB022004F024FABDE8104086
:1046D00001F02EBC10BD000090B0FCF7A7FD06ACA9
:1046E00020462821FBF725FD012006900A904FF473
:1046F000E01000254FF4803102260F9020460595EA
:10470000CDE90355CDE90155CDE90715CDE90D6199
:10471000FCF724FF0F20CDE901064FF48060CDE9BE
:10472000040501A802210395FCF73EFEFDF720FFDA
:10473000FDF7B4FFFEF70AF9FEF734F8FEF77CF850
:10474000FEF7C8F8062000210022FCF7F1FD062044
:10475000FCF7DCFD072000210022FCF7E9FD072023
:10476000FCF7D4FD092000210022FCF7E1FD09201F
:10477000FCF7CCFD0A2000210022FCF7D9FD0A201D
:10478000FCF7C4FD42F66850C2F200003C21FDF780
:10479000A5F904F0E3F904F001FAFEF775FB02F065
:1047A00067FC02F08FFC03F0ADFE04F0A5F943F2C4
:1047B0000040C2F20000C0E90055856043F2DC0011
:1047C000C2F2000090F8480043F2EC3443F20C4689
:1047D00043F2184A43F21C4B43F21A4743F21B4878
:1047E00043F21949C2F20004C0F30010C2F20006FD
:1047F000C2F2000AC2F2000BC2F20007C2F20008C5
:10480000C2F20009207000BF2078C4E90055207072
:1048100046F26440C4E90255256120816420A072FB
:10482000C6E90055B5608AF800508BF800503D701D
:1048300088F8005089F8005002F036FCFFF71CFCA5
:1048400002F07AFFFEF722FAFFF70CFF01F02CF9D5
:10485000FFF746FC00F080FE03F02EFD00F09EFE08
:10486000FFF720FC02F0ECF801F048FCCCE7000078
:104870002DE9F04F91B00F911D99814608911A9939
:104880001F460E911E9915460B91DDE91B6452F8E7
:10489000261053F826B008465946FBF762FC55F837
:1048A000241057F82480059505460846414601978F
:1048B000FBF757FC074659F82600294609968BF066
:1048C000004A0D95FBF79FFC59F824100546084651
:1048D0003946CDF810900094C1460C97FBF793FC35
:1048E000064640462946FBF794FC074658463146A3
:1048F000FBF78FFC01463846FBF785FC0746304640
:104900004146FBF786FC064650462946CDF840A0B6
:10491000FBF77FFC3146FBF776FC0146384604F096
:1049200045FA8246FBF76BFF05460B984EF68D5213
:104930000E46CAF2B50288B14CF2F763CBF6A0631B
:1049400028463146FBF7BEFE00BB4DF64A0242F256
:10495000FB13C4F61252CCF2190310E04CF2F763C9
:10496000C3F6A06328463146FBF7C7FE70B94DF683
:104970004A0242F2FB13C4F61252C4F2190328464B
:104980003146FBF7B6FCFBF74DFF82465046FBF77E
:1049900036FF0023C3F6E0730022FBF751FD0E9CA7
:1049A000054620460E46FBF72AFF02460B462846E0
:1049B0003146FBF745FD054643F2DC00C2F200003C
:1049C000C76B21F0004620462146FBF7CAFB39465B
:1049D000FBF719FC01463846FBF71BFC04F064FEAC
:1049E000FBF70DFF02460B4628463146FBF79AFDC2
:1049F00004F028FCFBF7E4FE0E90DDF8148000289C
:104A0000014600F0FD800F98057A28070DD50E9815
:104A1000FBF797FE0F9E0246316808461146FBF7EA
:104A2000F8FB306005F0F7003072DDF838B058461A
:104A3000FBF787FE054650462946FBF71CFC049908
:104A4000089B064651F8232058F823101046FBF720
:104A5000DAFB2946FBF70FFC0B9030463146FBF79B
:104A6000D8FB01464FF08040FBF7CDFB07463046B0
:104A70000396FBF7C4FE4DF64B2245F25553C5F69F
:104A80007D42C3F6C573FBF7DBFC054638460E4690
:104A9000FBF7B5FE0023C4F210030022FBF729FC4C
:104AA00002460B46284631464646FBF7C9FCFBF753
:104AB000B9FE079038464FF07C51FBF7AAFBBBF1DB
:104AC000010F069000F09C80099989F0004B06EBDD
:104AD00081000A9001984FF0010A00EB81010291D8
:104AE00000994FF0000806EB810200EB810009926B
:104AF0000190089806EB80000890DDF8189000BF40
:104B0000B8F10B0F22D848465946FBF782FB109F9D
:104B10003446079E054638463146FBF77AFB294660
:104B2000FBF71FFB0546304659462646FBF771FB4F
:104B3000044638464946FBF76CFB2146FBF763FB0E
:104B4000074608F10108AB4635E000BF1FFA8AF0BE
:104B5000FBF7F7FD01460398FBF75BFB044604F007
:104B6000B3FA0546204604F0B5FC044602980768EF
:104B7000019887F00048D0F800B020465946FBF76E
:104B800048FB064638462946FBF743FB01463046BC
:104B9000FBF739FB074628465946FBF73AFB054623
:104BA0004046059E2146FBF734FB2946FBF72BFBCD
:104BB00083464FF000080D983946FBF7D2FA0A9960
:104BC00008600C985946FBF7CCFA0999089C0860D4
:104BD00021680B98FBF7C5FA0F992060304600F06A
:104BE00055F843F2EC30C2F20000407878B91097E3
:104BF0000AF1010A0E991FFA8AF08842FFF480AF89
:104C000004980F9911B0BDE8F04F00F03FB811B013
:104C1000BDE8F08F43F2EC31C2F2000109780229BD
:104C200008BF704710B5044600F088FF20460021F9
:104C3000BDE81040FEF7BEB810B50446FFF7BCFA59
:104C40001CB90120FFF7EEFA02242046FFF7EAFA2A
:104C500001F06EF943F2EC30C2F200004078002817
:104C600018BF10BDFFF71EFA00F098FC40F2144088
:104C7000C4F201004FF4E05101602820FCF734FB3E
:104C80002820BDE81040FCF741BB0000F0B581B022
:104C900043F2DC06C2F200060C4696F8481043F2D6
:104CA000EC3705468806C2F2000705D5387820287B
:104CB00002D02846FFF7ECFC3878022802D101B078
:104CC000F0BD00BF01F034F978780028F7D100F08A
:104CD00049FB10B100F026FFF4E72846214600F01A
:104CE0004DF90028EBD196F84800800744BF207AA0
:104CF0005FEAC060E3D56168102001B0BDE8F04014
:104D000002F094BDF0B581B043F2EC37C2F2000777
:104D100014463A78022A02D1002001B0F0BD0646BE
:104D20000D4600F00BFF787880B9C4F3C000002175
:104D3000797100F091FE00F0A5FE50B1042003F05F
:104D4000E9FE01F0F5F8002000F086FE022001B037
:104D5000F0BD30462946FFF799FF43F21845C2F2ED
:104D6000000501202870022003F0ECFE01F0E0F8BD
:104D700078780028EAD138780028F7D128780128F7
:104D800005D1E00606D4052003F0C4FE10E00120A2
:104D900078710DE043F20040C2F20000D0E9001249
:104DA000806843F20C43C2F20003C3E9001298602A
:104DB0000020287000F050FE01F0BAF803F07CFAF1
:104DC00000F0CAFB00F0EAFB01F0E8FE7879002869
:104DD00018BF012001B0F0BD80B543F21C40C2F203
:104DE00000000078C0061FD4102003F0ABFE02F0D4
:104DF0001BFDFDF793FF43F2EC31C2F2000108788E
:104E000010F02C0F04D1097911F0060F08BF80BDF6
:104E100004280AD143F21A40C2F20000007830B1EF
:104E2000BDE8804002F090BD80BD032000E0062078
:104E300003F070FEBDE8804002F086BD40F2100C29
:104E4000C2F2000CA2B110B501384FF0000E0C46B2
:104E50001CF80430611C5FEA0E6400F8013F18BFC3
:104E60000133013A9E460C46F2D1BDE8104000E005
:104E700000231CF80100D9B2081AB0FA80F04009EA
:104E80007047000040F2100CC2F2000CC2B110B525
:104E900001394FF0000E044611F8013F5FEA0E6041
:104EA00004F101000CF8043018BF0133013A9E46AA
:104EB0000446F1D1BDE810400CF80030FDF7A0BF6A
:104EC00000230CF80030FDF79BBF00007047000086
:104ED0007047000070B50D46044600F02FFEFF2C11
:104EE00014D0032C3AD8022D39D0012D18BF70BD33
:104EF00049F27E70C0F6000030F8141040F6000051
:104F0000C4F20100BDE87040FBF7C8BF012D14D00A
:104F1000022D23D140F6000449F27E760025C4F22A
:104F20000104C0F6000600BF36F815102046FBF756
:104F3000B1FF0135042DF7D110E040F6000449F22D
:104F40007E760025C4F20104C0F6000636F815107E
:104F50002046FBF7A3FF0135042DF7D170BD49F2C0
:104F60007E70C0F6000030F8141040F60000C4F265
:104F70000100BDE87040FBF78DBF00002DE9F04F48
:104F800091B00C4642F6C841C2F20001097840F2E5
:104F90002842C2F20002342301FB03280490404659
:104FA0003421FBF7C6F8207A009488F81100616874
:104FB0008007C8F830100AD442F67860C2F20000C8
:104FC0008268D0E900100D92CDE90B100DE043F29C
:104FD0000047C2F20007384603F070FB0B903846DA
:104FE00003F072FBB968CDE90C01049E43F2DC05C5
:104FF000C2F2000530682968FBF70BF9FBF7FFFBED
:1050000004F0CCF90446706869680E94FBF701F966
:10501000FBF7F5FB04F0C2F9DDE90B210F900392D9
:10502000A21A431A9B18A1EB000048BF5B428018EC
:10503000C8F8003048BF4042C8F804000398002573
:105040000844201A02906018019043F2DC00C2F27A
:1050500000000EAF0BAE041D0DF1200A4FF0000B47
:1050600005E000BF04350C2D0BF1010B56D0082DC7
:1050700013D1049843F2DC01C2F2000140594959AE
:10508000FBF7C7F8FBF7BBFB04F088F971597851BF
:10509000411A48BF494248F80510D8F80C0058F8A2
:1050A0000510884288BF01465FFA8BF00128C8F8D6
:1050B0000C1009D080B90F98029943F2DC0908441A
:1050C000C2F2000911E000BF0F980399A1460844FD
:1050D0000199081A09E000BF78597159401A43F242
:1050E000DC01C2F2000101EB0509FBF721FBD9F855
:1050F0000010FBF7C0F800214AF80500FBF79DFA05
:105100000028AFD149F27270C0F6000010F81B0001
:1051100098F81010084388F81000A3E7D8F80C009E
:1051200000286DD00DF120094846FDF76BFDC8F849
:10513000200040F21040C2F2000000F10C052846A9
:105140004946FFF713F8C8F81C0043F2DC00C2F22E
:1051500000000C304946FFF709F898F81140C8F8EC
:105160002800E10709D1009821070068C8F82C0041
:1051700005D5D8F82010FBF74CF8C8F82C00A0078C
:1051800042D442F6C84042F6CA41C2F20000C2F21E
:10519000000100780978884236D042F6786B049591
:1051A0000024C2F2000B0DF1140A00250BEB0400E1
:1051B000C66859F8047030463946FBF72AF80146AC
:1051C0002846FBF720F8054638463146FBF71BF822
:1051D0004AF8040004340C2CE8D12846FBF70FFBF6
:1051E00040F6E9324FF6FD73CEF22172C3F6EF734B
:1051F00007460D46FBF781FA002856D0002006E04E
:10520000002011B0BDE8F08F0020C8F81400C8F8E5
:10521000240098F81100800743D4404600F0B2F80B
:1052200042F67869C2F20009D9F81860054631469D
:10523000FBF711FA044628462946FAF7EAFF074623
:1052400030463146FAF7E5FF002C08BF3846D8F85B
:105250002460C8F818003146FBF7D3F9002808BFCE
:10526000C8F8186008AA07CA109EC9E90412C9E95B
:10527000026042F60060C2F20000017842F6C842C5
:10528000C2F2000211700131DDE90E37CAB2C83A2C
:10529000C9E90037C9F8185018BF0A46027000F073
:1052A000F3F9012011B0BDE8F08F40F6E9324FF676
:1052B000FD73CEF22172CBF6EF7338462946FBF729
:1052C00001FA20B14FF6FF70C7F67F709FE705AE79
:1052D0003046FDF797FC04983146FEF747FF00245F
:1052E000C3F6F0740646002021463A462B46FBF7EB
:1052F000A1F80023C3F6E0730022FBF7A1F8FBF747
:1053000091FA04F0D1F943F2DC01C2F20001896B99
:1053100005463046FAF77DFF01462846FAF779FF41
:10532000FBF76DFA064628460F46FBF768FA024679
:105330000B4600202146FBF77DF802460B4630461F
:105340003946FBF7EFF80022002305460E46FBF72F
:10535000D4F9002804BF0546064628463146FBF727
:1053600061FA54E742F6CA4042F60061C2F2000018
:10537000C2F2000100780978401AB0FA80F04009C2
:1053800070470000F0B581B0417CC46ACA072CD1D7
:10539000490721D443F2EC31C2F20001097A0746F1
:1053A0000846FBF7D3F941F27B4247F6E123C4F20A
:1053B000AE72C3F68473FBF743F8054620460E46EB
:1053C000FBF71DFA02460B4628463146FBF738F834
:1053D000FBF728FA04463846856A20462946FBF73B
:1053E00010F9002808BF2C461EE043F2EC30C2F250
:1053F0000000407AFBF7AAF941F27B4247F6E1232D
:10540000C4F2AE72C3F68473FBF71AF80546204661
:105410000E46FBF7F4F902460B4628463146FBF7E9
:105420000FF8FBF7FFF9044620464FF07E514FF08E
:105430007E55FBF710F9002818BF2546284601B015
:10544000F0BD000080B502F0F5FF42F6CA40C2F29E
:105450000000007842F6C941C2F200010870BDE8C0
:10546000804000F011B9000080B542F6C84042F615
:10547000CA4EC2F20000C2F2000E02789EF800107E
:105480008A4208BF80BD42F6C94C4B1CC2F2000CD8
:10549000DAB29CF80000C83A18BF1A46814208BF29
:1054A0008CF800208EF8002080BD000042F6C84035
:1054B00042F6CA41C2F20000C2F200010078097847
:1054C0000A1AA2F139026FEA000088BF0A18D0B2A6
:1054D0007047000042F6C84042F6CA41C2F20000DE
:1054E000C2F200010078097840F22842401AC2F264
:1054F00000024FF0340318BF01FB03207047000087
:1055000042F6CA40C2F2000000780130C1B2C83988
:1055100018BF014642F6C840C2F200000278C8B285
:10552000904204BF0020704740F22841C2F20001BF
:10553000342200FB021040697047000042F6C84068
:10554000C2F20000007840F22841C2F20001342289
:1055500000FB02107047000042F67860C2F20000C3
:105560000021C0E90011C0E90211C0E90411816104
:1055700042F6CA40C2F20000017042F6C840C2F2D0
:105580000000017042F60060C2F2000001220270C9
:1055900042F6C940C2F200000170704770B543F294
:1055A000004442F678660025C2F20004C2F200060A
:1055B00009E000BF204603F087F87060022D05F176
:1055C000010528BF70BD012DF4D02DB9204603F090
:1055D00075F83060F2E700BFA068B060EEE7000049
:1055E0002DE9F04F81B042F6CA40C2F200000778C0
:1055F00042F6C840C2F2000090F800904F4504D136
:105600004FF6FF74C7F67F7435E04FF6FF76C7F6A6
:105610007F764FF0340B00BF40F22841F8B2C2F25F
:10562000000100FB0B152846FFF7ACFE314604468F
:10563000FBF711F8804620462146FAF7EAFD82463C
:1056400030463146FAF7E5FDB8F1000F08BF504685
:105650006E6AA8613146FAF7D4FF002807F101000D
:10566000C1B208BFAE61B1F1C80718BF0746F8B2B2
:1056700048452646D0D142F67860C2F200008461E7
:1056800001B0BDE8F08F00002DE9F04F81B042F687
:10569000C840C2F20000007842F6C94A471EC2F272
:1056A000000A002808BF6FF038079AF800905FFAE8
:1056B00087F8C84549D040F22841C2F200013420A1
:1056C00008FB0014D4E90650266A0146FAF749FDA2
:1056D0003146FAF79EFD064628463146FAF79FFF07
:1056E0000028A7F1010718BF2E46B8F1000F08BF28
:1056F0006FF03807F8B2484566610DD142F6CA41ED
:10570000C2F20001097840F228458842C2F2000541
:1057100008BF02F08FFE07E09AF8001040F228451B
:105720008842C2F2000552D19AF80000411CCAB268
:10573000B2F1C80718BF0F4642F6C841C2F20001D5
:1057400091F80090F9B2494502D101B0BDE8F08F5F
:105750004FF0340B00FB0B5617E000BFD8E90501F2
:10576000FAF787FF002807F10100C1B218BF8AF8D5
:105770000070B1F1C80718BF0746F8B240F22845DB
:1057800048454646C2F20005DFD0F8B200FB0B5890
:105790007569D8F8144028462146FAF74EFF0028CC
:1057A000DCD1D6E907060146FAF7DBFC3146FAF709
:1057B00030FD2946FAF7D5FC21460546FAF73DFFAC
:1057C000002804BFC8F814508AF80070C6E73426D1
:1057D00009E000BF42F6C94AC2F2000A9AF8000086
:1057E000D8468145A0D042F6CA405FFA87FB013F08
:1057F000C2F20000BBF1000F08BF6FF0380700785D
:105800005FFA87F9814508BF02F014FE0BFB065AC8
:10581000DAE905042146FAF72CFF0028DAD108FB63
:105820000650D0F81480DAE907050146FAF799FC2A
:105830002946FAF7EEFC414640F22845C2F200053F
:10584000FAF78FFC21460646FAF7E9FE002818BF52
:1058500034463426CAF81440BCE70000F0B585B0E1
:105860000C4600210746FAF7E8FE20B92D2001F08A
:1058700027FC87F00047022C0CD30025C4F2C82572
:10588000264638462946FAF7C4FC023EF1B2012901
:10589000F8D801E0264638460021C4F2201105461A
:1058A000FAF7B7FC31064FF07C5108BF2846FAF7EB
:1058B00058FCFAF758FFC0B14CF6CD410023CCF6A6
:1058C000CC410DF1070200BFA0FB0176F70807EB02
:1058D0008706A0EB460646F030065D1CDBB2D654C8
:1058E0000A2838462B46EFD200E00025EEB2A64249
:1058F0000ED2E94321440DF10700C9B23044013111
:105900003022FAF70FFC00BF0136B442FCD1354615
:10591000E8B2A04204D101350DF1070030218155D4
:10592000280616D0E8B20DF1070101444E1E241AD4
:1059300009E000BF16F8010901F0C2FB013D28068D
:1059400004F1010405D0002CF4D12E2001F0B8FBA5
:10595000F0E705B0F0BD000043F2DC01C2F2000147
:1059600091F84810C90702D10321FFF777BF80B52E
:10597000FAF745FF46F6650242F65103C5F2E172B9
:10598000C3F6A473FAF75CFDFAF74CFF0421BDE8F7
:105990008040FFF763BF000043F2DC01C2F2000168
:1059A00091F84810C90702D10021FFF757BF80B511
:1059B000FAF725FF46F6650242F65103C5F2E17299
:1059C000C3F6A473FAF73CFDFAF72CFF0121BDE8FA
:1059D0008040FFF743BF00000178002908BF7047EF
:1059E00010B5441EC8B201F06BFBA1780134002948
:1059F000F8D1BDE810407047F0B581B00446CD2025
:105A000004FB00F1CE0A06EB8601A4EB410141F054
:105A10003005642C3CBF264600257043C70A384633
:105A20000A2E38BF30463030C0B201F049FB0A2E92
:105A300008D307EB8700A6EB400040F03000C0B26F
:105A400001F03EFB642C3CBF01B0F0BDE8B201B0F8
:105A5000BDE8F04001F034BB43F2DC01C2F20001CA
:105A600091F8481042F6D06C21F07F01C2F2000C90
:105A70000B024FF40042002808BF82EA0123ACF871
:105A80000030704740F60800C4F2010042F6D061D1
:105A90000068C2F20001098800F40040401AB0FA20
:105AA00080F040097047000043F2DC00C2F20000C1
:105AB00090F8480042F6D06100F080004FF40042B8
:105AC000C2F2000182EA00200880704740F6080018
:105AD000C4F2010042F6D0610068C2F200010988F8
