:020000040800F2
:10000000184B00205D0200087935000865270008BC
:1000100075350008D10600083D3D000800000000CD
:100020000000000000000000000000007D3B000810
:10003000D5060008000000007D350008813B00085F
:1000400077020008770200087702000877020008AC
:100050007702000877020008D90600081507000893
:1000600031070008510700087702000877020008EE
:10007000770200087702000877020008770200087C
:10008000770200087702000877020008770200086C
:10009000770200087702000877020008770200085C
:1000A000770200087702000877020008770200084C
:1000B000770200087702000877020008770200083C
:1000C000770200087702000877020008770200082C
:1000D00077020008193D000877020008770200083F
:1000E000F50600087702000877020008770200088A
:1000F00077020008770200087702000877020008FC
:100100007702000877020008DD3B0008770200084C
:10011000770200087702000877020008FD3B00081C
:1001200077020008770200087702000877020008CB
:1001300077020008770200087702000877020008BB
:1001400077020008770200087702000877020008AB
:10015000770200087702000877020008770200089B
:10016000770200087702000877020008770200088B
:1001700077020008770200087702000800000000FC
:10018000770200087702000800F002F800F057F844
:1001900014A696E8000CB244B344DA4501D100F04D
:1001A0004EF8BAE80F000FA696E83000A5EB04055C
:1001B00004EB0607AAEB0704A7F101074FEA1515A0
:1001C0004FEA3414A4F10104AC4201D300F037F833
:1001D00013F0010F18BFFB1A43F0010300F001F800
:1001E000DBE7184764D5000084D50000103A24BF2F
:1001F00078C878C1FAD8520724BF30C830C144BF8C
:1002000004680C6070470000704700000023002461
:1002100000250026103A28BF78C1FBD8520728BF16
:1002200030C148BF0B607047642900F0AF800020E8
:1002300070471FB50DF081F91FBD10B510BD00F05E
:10024000D5F91146FFF7F5FF06F04AFA00F0F3F989
:1002500003B4FFF7F2FF03BC00F0F6F9094880474A
:1002600009480047FEE7FEE7FEE7FEE7FEE7FEE798
:10027000FEE7FEE7FEE7FEE704480549054A064BB0
:1002800070470000853B00088901000818450020E0
:10029000184B0020184700201847002053EA020C92
:1002A00000F069802DE9F04B4FF00006002B1FBFD6
:1002B000B3FA83F503FA05F424FA05F65E4012BF9B
:1002C0001643B2FA82F502FA05F4C5F120051EBF05
:1002D00022FA05FC44EA0C04203556EA044C4FEAA5
:1002E000144418BF641C4FF000084FF000099042FE
:1002F00071EB030C39D3002919BFB1FA81F701FA68
:1003000007F6B0FA80F700FA07F6C7F120071EBF1C
:1003100020FA07FC46EA0C062037B6FBF4FCA7EBF4
:100320000507103F07F01F0BCBF120062CFA06F64D
:100330000CFA0BFB44BFB3460026202FA4BF5E4639
:100340004FF0000B5BEA060C08BF4FF0010B19EBF6
:100350000B0948EB0608ABFB027C06FB02CC0BFB4F
:1003600003CCC01B71EB0C01C1E70B4602464146B2
:100370004846BDE8F08B13B5084318BF4FF0FF3077
:100380000146AFF30080BDE81C4070472DE9F04105
:100390000646002410687529314616A510D0AFF323
:1003A0000080002802DA404213A507E031688A077E
:1003B00001D512A502E0490704D511A5012401E0E9
:1003C000AFF3008000210A2206F1240709E0B0FB08
:1003D000F2FCB0FBF2F302FB1C00303078541846FC
:1003E000491C0028F3D123462A463046BDE8F04197
:1003F00000F079B8000000002D0000002B00000084
:100400002000000040EA010310B59B070FD1042A29
:100410000DD310C808C9121F9C42F8D020BA19BACF
:10042000884201D9012010BD4FF0FF3010BD1AB134
:10043000D30703D0521C07E0002010BD10F8013B89
:1004400011F8014B1B1B07D110F8013B11F8014BB0
:100450001B1B01D1921EF1D1184610BD02F0FF0303
:1004600043EA032242EA024200F098B802F0FF0396
:1004700043EA032242EA024200F002B84FF00002CF
:1004800000B5134694469646203922BFA0E80C508A
:10049000A0E80C50B1F12001BFF4F7AF090728BF65
:1004A000A0E80C5048BF0CC05DF804EB890028BFE1
:1004B00040F8042B08BF704748BF20F8022B11F00A
:1004C000804F18BF00F8012B704770477047704786
:1004D00010B500F083F8006810BD10B5044600F0B8
:1004E0007DF8046010BD2DE9F0470D46994692460F
:1004F000044600F124080168880604D5E06921F06B
:100500001001216000E00120A84201DD471B00E04E
:100510000027A1697A1902EB0900081AA061207866
:10052000C00602D42046AFF30080002608E0D4E9DC
:1005300001211AF806009047206A401C761C2062B0
:100540004E45F4DB2078C0060AD52046AFF3008084
:1005500006E0D4E9012130209047206A401C206247
:10056000381EA7F10107F4DC07E0D4E9012118F8EF
:1005700005009047206A401C2062281EA5F1010555
:10058000F3DC2046AFF300802078000602D502207D
:10059000BDE8F0870120FBE74FF000020429C0F01E
:1005A000128010F0030C3FF46BAFCCF1040CBCF1E3
:1005B000020F18BF00F8012BA8BF20F8022BA1EBF7
:1005C0000C01FFF75DBF5FEAC17C24BF00F8012B7F
:1005D00000F8012B48BF00F8012B70470048704716
:1005E0003000002000487047300000207546FFF7BB
:1005F000F9FFAE4605006946534620F007008546E0
:1006000018B020B5FFF738FEBDE820404FF00006D7
:100610004FF000074FF000084FF0000BAC46ACE87D
:10062000C009ACE8C009ACE8C009ACE8C00921F0D9
:1006300007018D46704710B50446AFF30080204691
:10064000BDE81040FFF704BE01491820ABBEFEE72D
:1006500026000200704700002020C4F2010001685B
:1006600041F001010160016841F010010160016881
:1006700041F480710160016841F480510160416A78
:1006800041F40041416250F8201C41F0010140F862
:10069000201C40F22040C4F20000016841F001013A
:1006A0000160016841F010010160016841F480714E
:1006B0000160016841F480510160416A41F40041E8
:1006C000416250F8201C41F0010140F8201C7047A5
:1006D000FEE700007047000080B5012000F0B8FA86
:1006E000012001F053FD4EF28020CEF200004021A7
:1006F000016080BD80B54FF4806000F0A9FA4EF231
:100700008420CEF200004FF480710160BDE880408B
:1007100001F08CBD80B5022000F09AFA022001F0B1
:1007200035FD4EF28020CEF200008021016080BDB8
:1007300080B5042000F08CFA042001F027FD4EF271
:100740008020CEF200004FF48071016080BD000077
:1007500080B5082000F07CFA082001F017FD4EF269
:100760008020CEF200004FF40071016080BD0000D7
:10077000F0B581B041F20004C4F202042046012128
:100780000022002700F040FB40F2DC05C2F2000529
:100790004FF204016869A5F80110294603220223DB
:1007A00001F0C0F920460121012200F02DFB204676
:1007B0000121002200F028FB4FF605716869A5F8B9
:1007C000011029460322022301F0ACF92046012141
:1007D000012200F019FB2046012100228DF8027051
:1007E00000F012FB102028716869EE1C31460222CD
:1007F000022301F097F968690DF102010122022339
:1008000001F090F820460121012200F0FDFA204677
:10081000012100228DF8037000F0F6FA11216869B9
:10082000297131460222022301F07CF968690DF139
:1008300003010122022301F075F820460121012263
:1008400000F0E2FA01B0F0BD7047000080B543F659
:100850001043C4F20203D3F800C04FF4407E2CF4DE
:1008600040721A601A68032938BF4FEA012E42EA23
:100870000E011960196821F0F8011960196841EA40
:10088000C00040F002001860186840F48030186022
:1008900080BD0000F0B581B043F63067044643F6F2
:1008A0000C46C2F200070020C4F20206F86100F014
:1008B000B1FA3168C9031BD43068C0071CBF0120DE
:1008C0003060306810F0F20F30D03068C00631D49C
:1008D0003068800637D4306840063DD43068000662
:1008E00043D43068800749D4012001B0F0BD00BF77
:1008F000C4B10546601C10D13068C003DCD5306837
:10090000C00344BF30685FEAC030D5D53068C0034B
:10091000F2D4D1E73068C003CED500F07BFA401B9B
:10092000A042F7D9032001B0F0BD00BF002001B004
:10093000F0BD00BFF86940F01000F8611020306091
:1009400030688006C7D5F86940F00800F8612020BB
:10095000306030684006C1D5F86940F00400F861A5
:100960004020306030680006BBD5F86940F00200D6
:10097000F8618020306030688007B5D5F86940F0B4
:100980002000F86102203060012001B0F0BD0000BD
:10099000002200F039BA0000012200F035BA000050
:1009A0002DE9F04381B041F20009C4F202094FF091
:1009B00000084846012100228DF8008000F024FA4A
:1009C00040F2DC07C2F20007102038717869FD1C84
:1009D00029460222022301F0A5F87869694601221E
:1009E000022300F09FFF48460121012200F00CFA8B
:1009F0004846012100228DF8018000F005FA1121FE
:100A00007869397129460222022301F08BF878694E
:100A10000DF101010122022300F084FF484601216B
:100A2000012200F0F1F94846012100228DF80280F0
:100A300000F0EAF91221786939712946022202236D
:100A400001F070F878690DF102010122022300F033
:100A500069FF064648460121012200F0D5F99DF8BC
:100A60000240484601210022002E18BF444666B2CB
:100A70008DF8038000F0C8F913217869397129468F
:100A80000222022301F04EF878690DF103010122E0
:100A9000022300F047FF054648460121012200F0ED
:100AA000B3F99DF80310002D18BF414601F0030073
:100AB000033818BF012001F00C030C2B18BF0230C3
:100AC00001F03003302B18BF04304AB200F10803A4
:100AD000490658BF1846B2F1FF3FC8BF184600F19B
:100AE0001001620658BF0846B6F1FF3FC8BF08466E
:100AF00004F03001302918BF203080B201B0BDE8C9
:100B0000F0830000B0B5044600F084F9054640F2D9
:100B10000000C2F200000078611C18BF044400BF4E
:100B200000F078F9401BA042FAD3B0BD43F6104163
:100B3000C4F20201086840F0004200200A607047D9
:100B40002DE9F04143F63064C2F20004277E012F04
:100B500004BF0220BDE8F0810546012020764CF25A
:100B6000503098460F461646FFF794FE20B10021FC
:100B70002176BDE8F08100BF2A46022D43F61045DC
:100B8000C4F202051ED0012A314638460CD03ABBC9
:100B90002A6822F440722A602A682A602A6842F091
:100BA00001022A6001702CE02A6822F440722A6057
:100BB0002A6842F480722A602A6842F001022A60A0
:100BC00001801EE0286820F440702860286840F406
:100BD00000702860286840F0010028603E6010E046
:100BE0002A6822F440722A602A6842F440722A601D
:100BF0002A6842F001022A600160BFF36F8FC0F8DB
:100C000004804CF25030FFF745FE296821F00101C5
:100C1000296000212176BDE8F081000043F6044000
:100C2000C4F20200C168B1F1FF3FC4BF00207047A9
:100C300040F22311C4F26751016048F6AB11CCF6C3
:100C4000EF510160C068C00F70470000704700009E
:100C500043F61441C4F201010A68024214BF08605D
:100C60007047FFF7F3BF00002DE9F04F83B000F1AC
:100C7000200200F13E4741F60045009207F1FF7760
:100C8000C4F2020508224FEAB726A84208BF07228D
:100C900000254FF000084FF00009072E38BF4FEA3B
:100CA000B72201920AE000BF09F1010908F1020828
:100CB000B9F1100F05F1040500F0A2800F680122C0
:100CC00002FA09FE17EA0E0AEED0D1F804C0032298
:100CD0000CF003077E1E02FA08F4012E6FEA040BE3
:100CE00012D88468CE6804EA0B0406FA08F6344386
:100CF0008460446824EA0E06CCF3001404FA09F474
:100D00002643466004E000BF032F01D103271EE005
:100D1000C6688C6806EA0B0604FA08F42643022F1C
:100D2000C66014D16FF00302009E02EA590756F81C
:100D300007C005F01C040F220B69A2402CEA020236
:100D4000A3401A43F251D1F804C00CF00307026823
:100D500007FA08F302EA0B021A431CF4403F026050
:100D6000A2D0002243F644030292C4F202031A689E
:100D700043F6004442F480421A601A68C4F2010447
:100D800002F480420292029A29F003024FF6084CC4
:100D90002244CFF6FF7C52F80C3005F00C070F26EA
:100DA000BE40B343019E06FA07F73B4342F80C30BE
:100DB000A2684B6842EA0A0743F60C4CDE0258BFB1
:100DC00022EA0A07A760C4F2010CDCF800209E02A8
:100DD00042EA0A0758BF22EA0A07CCF800706268A4
:100DE0009E0342EA0A0758BF22EA0A0767602268A0
:100DF000DB0342EA0A0758BF22EA0A07276053E7E3
:100E000003B0BDE8F08F0000002A08BF090481612B
:100E10007047000044F21450C2F2000000687047AE
:100E2000002804BF0120704710B5044690F8410027
:100E300028B9002084F84000204601F06BF92420F6
:100E400084F841002068C16821F40051C160204647
:100E500002F0EEFE2068016921F4904101614169D0
:100E600021F022014161416941F008014161C168FD
:100E700041F40051C16000202021606484F84110D9
:100E800084F84210606310BD002804BF0120704741
:100E9000F0B581B0044690F83D0028B9002084F8F0
:100EA0003C00204600F0A2F8242084F83D00206891
:100EB000016821F001010160016841F40041016015
:100EC000016821F40041016000F048FA636848F2CB
:100ED000A16CC0F2010C40F60011C0F23D01634567
:100EE0003CBF48F28041C0F21E01884202D201207C
:100EF00001B0F0BD4DF68361C4F21B31A0FB0112BD
:100F00002168970CD1F804E04FF496762EF03F0557
:100F100045EA92454D60774348F638160D6AC0F2AF
:100F20004106A7FB067625F03F07634538BF960CC0
:100F3000721C3A430A62CA6948F2A0664CF6FF770F
:100F4000C0F20106B34222EA07020BD801385B0067
:100F5000B0FBF3F001306FF31F30042898BF04207A
:100F60001BE000BFA768013857B119277B43B0FBCE
:100F7000F3F001306FF31F3070B100F5804007E0EF
:100F800003EB4303B0FBF3F001306FF31F3018B1F4
:100F900000F5004001E000BF01201043C86108686F
:100FA000D4E9072320F0C000104318430860886884
:100FB00048F2FF3204F10C0790438CCF18431043E2
:100FC000A6698860C86820F0FF0038433043C860D5
:100FD000086840F00100086000202021206484F8A7
:100FE0003D10206384F83E0001B0F0BDB0B586B07E
:100FF00045F200410068C4F20001002488420594D3
:10100000CDE903440294019402D006B0B0BD00BF04
:1010100043F630050094C4F20205286840F002004F
:101020002860286800F00200009000984FF440709B
:1010300001901220029001200390032004900420CC
:10104000059001F5D83001A9FFF70EFE009428693C
:1010500040F400102861286900F400100090009806
:1010600006B0B0BD40F2000044F21451C2F20000DC
:10107000C2F2000100780A6810440860704700005E
:1010800080B543F60040C4F20200016841F40071EB
:101090000160016841F480610160016841F4807180
:1010A0000160032000F098F8002000F005F800F03F
:1010B00027F8002080BD000070B540F20006C2F2A3
:1010C000000640F208013278C2F200014FF47A7350
:1010D0000968B3FBF2F20446B1FBF2F1084601F0F5
:1010E00003F80F2C4FF0010508D838B94FF0FF3046
:1010F00021460022002500F043F87460284670BDA8
:1011000082B0002043F640010190C4F202014A6817
:1011100042F480424A604A6802F480420192019A95
:101120000090086840F080500860086800F0805027
:101130000090009802B07047002848BF704700F048
:101140001F01012202FA01F11C2202EAD0004EF234
:101150008022CEF20002815070470000002848BF74
:10116000704700F01F01012202FA01F11C2202EA7D
:10117000D0004EF20012CEF2000281507047000003
:1011800010B54EF60C5CCEF2000CDCF80030C3F368
:10119000022E8EF00704042C28BF0424BEF10303A2
:1011A0004FF0FF3E0EFA04F438BF0023A1439940EC
:1011B0000EFA03F39A43114300F00F0200F160436B
:1011C0000901043A03F564436244002848BF02F170
:1011D0000C03197010BD00004EF60C51CEF2000148
:1011E0000A684FF6FF031A4060F30A2242F080605B
:1011F00040F0FD7008607047002804BF0120704770
:101200002DE9F04143F60808C4F202080446D8F874
:10121000F8030D4600F00700884207D288F8F8531B
:10122000D8F8F80300F00700A84277D120688107BA
:1012300017D5410705D5D8F8001041F4E051C8F89A
:101240000010010705D5D8F8001041F46041C8F836
:101250000010D8F80010A26821F0F0011143C8F87E
:101260000010C00740D1D8F8F80300F00700A842EA
:1012700007D988F8F853D8F8F80300F00700A84217
:101280004CD12068410707D5D8F80010E26821F456
:10129000E0511143C8F80010000708D5D8F8000045
:1012A000216920F4604040EAC100C8F8000000F065
:1012B0007DF8D8F800104DF2E052C1F30311C0F6EA
:1012C0000002515C40F2080220FA01F140F20400F1
:1012D000C2F200000068C2F200021160FFF7ECFEEB
:1012E0000020BDE8F08100BF6068811E022907D29E
:1012F00058F8081C89015CBF0120BDE8F08111E0AD
:10130000012807D158F8081C89035CBF0120BDE8FB
:10131000F08107E058F8081C890703D40120BDE8D4
:10132000F08100BFD8F8001021F003010843C8F88D
:101330000000FFF76FFD064641F28837D8F800003D
:10134000616800F00C00B0EB810F8CD0FFF762FDFC
:10135000801BB842F2D90320BDE8F08140F20800BA
:1013600043F60801C2F20000C4F2020100680968F5
:101370004DF2F052C1F38221C0F60002515CC84028
:101380007047000040F2080043F60801C2F2000076
:10139000C4F20201006809684DF2F052C1F3423113
:1013A000C0F60002515CC8407047000010B543F61B
:1013B0000404C4F20204606800F00C0008280BD09A
:1013C000042819BF42F20040C0F2F40041F6003098
:1013D000C0F2B70010BD00BF206821682368490231
:1013E00041F60031C0F2B70100F03F02C3F38810AC
:1013F0005CBF42F20041C0F2F401A1FB00010023F6
:10140000FEF74CFF21680222C1F3014102EB4101CA
:10141000B0FBF1F010BD0000002804BF01207047B0
:101420002DE9F04182B00446007843F60006C0077B
:10143000C4F202060CD0B06800F00C00042840F0A2
:1014400081803068800303D56068002800F06881DF
:10145000207880071BD5B06810F00C0F09D0B06859
:1014600000F00C00082840F087807068400200F10E
:1014700083803068800703D5E068012840F0508100
:101480003068216920F0F80040EAC100306020781F
:10149000000713D4207840072AD4A569002D00F056
:1014A0003A81B06800F00C00082840F0A580012DBA
:1014B00040F00E81012002B0BDE8F0816069002893
:1014C00000F082800020C4F247200121C0F8801E75
:1014D000FFF7A0FC054600BF706F8007DAD4FFF766
:1014E00099FC401B0228F7D9032002B0BDE8F08127
:1014F000306C5FEAC0080AD400200190306C40F0E4
:1015000080503064306C00F080500190019847F2B8
:101510000007C4F200073868C00547D4386840F4B3
:1015200080703860FFF776FC054600BF3868C0055C
:101530003CD4FFF76FFC401B0228F7D9032002B010
:10154000BDE8F081B06800F00C00082803D1706895
:1015500040023FF576AF61683068B1F5803F07D053
:10156000B1F5A02F40F09A8040F4802030603068C0
:1015700040F4803030609AE0E068002840F20000DB
:10158000C4F247205CD001210160FFF743FC05460F
:10159000306880073FF574AFFFF73CFC401B022822
:1015A000F6D9032002B0BDE8F08100BFA168306F1A
:1015B000012905D0052955D140F004003067306F6E
:1015C00040F00100306756E00020C4F247200021BF
:1015D000C0F8801EFFF71EFC054600BF706F800735
:1015E0007FF558AFFFF716FC401B0228F6D9032001
:1015F00002B0BDE8F08100BF0027C4F247270020F9
:101600003866FFF707FC022D05460DD130688001D2
:1016100040F18A80FFF7FEFB401B02284FF00300D9
:10162000F4D902B0BDE8F0813068800173D5FFF7CE
:10163000F1FB401B02284FF00300F5D9F1E700BF92
:1016400000210160FFF7E6FB054600BF3068800718
:101650007FF51DAFFFF7DEFB401B02284FF00300B4
:10166000F4D9DEE720F001003067306F002920F068
:10167000040030677AD0FFF7CDFB054641F288378A
:10168000306F800700F18480FFF7C4FB401BB84235
:10169000F6D9032002B0BDE8F08100BF20F480300D
:1016A00030603068002920F4802030607AD0FFF765
:1016B000B1FB0546306880033FF5CAAEFFF7AAFBD1
:1016C000401B6428F6D9032002B0BDE8F08100BFBA
:1016D0007068E16900F480028A4221D1216A00F039
:1016E0003F028A421CD147F6C071626A0140B1EBE9
:1016F000821F15D1A16A4FF6FF73C903994300F405
:101700004032A1F580318A420AD1E16A00F070606E
:10171000B0EB016F04D1002002B0BDE8F08100BF42
:10172000012002B0BDE8F08104F11C052FCD084373
:1017300040EA8210D9034FF6FF729143A1F5803140
:1017400040EA05600843706001203866FFF762FBDD
:10175000044600BF30688001DDD4FFF75BFB001B4F
:1017600002284FF00300F5D95BE700BFFFF752FBFB
:10177000054641F2883700BF306F800708D5FFF774
:1017800049FB401BB8424FF00300F5D949E700BFC1
:10179000B8F1000F3FF581AE306C20F0805030641E
:1017A0007BE600BFFFF736FB054600BF30688003CD
:1017B0007FF54EAEFFF72EFB401B64284FF0030071
:1017C000F4D92EE770B528B1416A29B10021016131
:1017D000142106E0012070BD4168B1F5827F02D07E
:1017E0001C21002242500026866290F8511029B92F
:1017F00080F85060054600F03DF82846022180F848
:10180000511090E82E0002F482720C6803F4044335
:1018100024F040040C601A4405F4006305691A447E
:1018200005F0020345691A4405F001038569C4699E
:101830001A4405F400731A4404F03803046A1A4485
:1018400004F08003846A1A4304F400531A430A60C4
:10185000436A042202EA154203F010031A444A6064
:10186000CA6922F40062CA610121466580F85110FC
:10187000304670BD2DE9F04387B043F6004500685F
:10188000C4F200050026A8420696CDE90466039638
:10189000029603D007B0BDE8F08300BF43F63000E6
:1018A0000196C4F20200016902AC41F400410161F9
:1018B00001694FF0020801F400410191019901967C
:1018C00001684FF0030941F0040101600168062737
:1018D00001F00401019101990196016841F00201B2
:1018E00001600068214600F00200019001984FF469
:1018F0004060029005F5E630CDE90386CDF81490FE
:101900000697FFF7B1F92020CDE9020805F5E4308C
:101910002146CDE904690697FFF7A6F907B0BDE8AF
:10192000F08300002DE9F04182B0044690F85100A8
:10193000012819D160681D4617460E46B0F5827F12
:1019400001D1A068A0B1FFF765FA8046002E4FF0E4
:10195000010018BF002F03D102B0BDE8F08100BF25
:1019600094F85000012811D1022002B0BDE8F081A6
:10197000042084F851002046314632463B4600950B
:1019800000F00EFA02B0BDE8F08100BF012084F83B
:1019900050000420002184F851006165A663A787E8
:1019A000E7872163A186E186A2682068B2F5004F2F
:1019B0002164616438D00168490640D5E168E08F50
:1019C000002944D000287BD0681C0CD11BE000BF4C
:1019D000C068A16B21F8020BA163E08F0138E0879A
:1019E000E08F00286CD020688168C907F0D1FFF72C
:1019F00011FAA0EB0800A842F2D342E0FFF70AFA7E
:101A0000E08F00285CD020688168C907F6D0C068E4
:101A1000A16B21F8020BA163E08F0138E087E08F12
:101A20000028F0D14CE000BF016821F040010160C6
:101A3000016821F48041016001684906BED4016853
:101A400041F040010160E168E08F0029BAD1B8B3EC
:101A5000681C0CD124E000BF007BA16B0870A06B58
:101A60000130A063E08F0138E087E08F40B3206849
:101A70008168C907F0D1FFF7CDF9A0EB0800A842B3
:101A8000F3D3012084F85100002084F85000032093
:101A900002B0BDE8F08100BFFFF7BCF9E08F78B17C
:101AA00020688168C907F7D0007BA16B0870A06B24
:101AB0000130A063E08F0138E087E08F0028EFD18C
:101AC0006068B0F5827F0ED1A068B0F5004F02D0FB
:101AD000B0F5806F0AD12168B0F5806F0A6822F0F6
:101AE00040020A6002D12046012101E02046802107
:101AF00000222B46CDF8008001F0B0FF28B1606DC8
:101B000040F02000606520206065012084F85100CD
:101B1000002084F85000606D002818BF012002B03A
:101B2000BDE8F0812DE9F04184B01D4616460F4610
:101B30000446FFF76FF994F8511001290ED1804641
:101B4000002F4FF0010018BF002E03D104B0BDE8F4
:101B5000F08100BF94F85000012803D1022004B0A6
:101B6000BDE8F081012084F850000320002184F8B2
:101B7000510061652763A686E686A163A187E18798
:101B8000A0682164B0F5004F2068616407D1016846
:101B900021F040010160016841F480410160016869
:101BA000490603D4016841F0400101606168731E79
:101BB000E268B1FA81F1B3FA83F349095B09B2F53E
:101BC000006F41EA030139D131B137F8021BC1601E
:101BD0002763E08E0138E086E08E002870D0681C14
:101BE0000BD11AE0216B31F8022BC2602163E08E29
:101BF0000138E086E08E002862D02068816889077D
:101C0000F0D4FFF707F9A0EB0800A842F2D338E0C0
:101C1000FFF700F9E08E002852D02068816889071C
:101C2000F6D5216B31F8022BC2602163E08E0138BA
:101C3000E086E08E0028F0D142E000BF39B139786B
:101C40000173206B01302063E08E0138E086E08E66
:101C5000B0B3681C0BD123E0216B09780173206BB2
:101C600001302063E08E0138E086E08E40B32068CA
:101C700081688907F0D4FFF7CDF8A0EB0800A842EF
:101C8000F3D3012084F85100002084F85000032091
:101C900004B0BDE8F08100BFFFF7BCF8E08E78B17A
:101CA000206881688907F7D5216B09780173206B5B
:101CB00001302063E08E0138E086E08E0028EFD10D
:101CC0002046022101222B46CDF8008001F0C6FEFD
:101CD000E0B1606D40F02000606520206065A06884
:101CE00038B9002002902068C16802918068029093
:101CF0000298012084F85100002084F85000606DA3
:101D0000002818BF012004B0BDE8F08140F20800AF
:101D1000C2F20000006849F68171C1F25E61A0FB69
:101D20000101480D4FF47A71484303906068B0F5A3
:101D3000827F0BD12046802100222B46CDF80080E7
:101D400001F08CFE0028C4D1C9E700BF0398002829
:101D5000C5D0039801380390206880680006BED57E
:101D600003980028BBD0039801380390206880684E
:101D70000006B4D503980028B1D003980138039029
:101D8000206880680006AAD503980028A7D0039889
:101D900001380390206880680006D7D49FE70000D0
:101DA0002DE9F04383B01E4615460F460446FFF763
:101DB00031F894F851108146012909D1002F4FF0D4
:101DC000010018BF002D0FD103B0BDE8F08300BFA4
:101DD0006068B0F5827F0DD104294FF00200F3D185
:101DE000A1680029EAD0EFE7002EEDD094F850006A
:101DF000012803D1022003B0BDE8F083012084F85C
:101E0000500094F85100002104281CBF052084F8DC
:101E100051006165A563E687A6872763E68620688B
:101E2000A686216461640168490603D4016841F013
:101E3000400101606168731EE268B1FA81F1B3FA92
:101E400083F3DDF8288049095B09B2F5006F41EAA8
:101E5000030165D131B137F8021BC1602763E08E01
:101E60000138E086012518F1010032D102E000BFFF
:101E7000FEF7D0FFE08E18B9E08F002800F0B880A0
:101E80002068816889070CD5E18E51B1012D08D1F8
:101E9000216B002531F8022BC2602163E18E0139EC
:101EA000E1868168C907E3D0E18F0029E0D0C068EE
:101EB000A16B012521F8020BA163E08F0138E087B7
:101EC000D6E700BFFEF7A6FFA0EB0900404580F073
:101ED000A580E08E18B9E08F002800F08980206886
:101EE000816889070CD5E18E51B1012D08D1216B94
:101EF000002531F8022BC2602163E18E0139E186B1
:101F00008168C907DED0E18F0029DBD0C068A16BF2
:101F1000012521F8020BA163E08F0138E087D1E7AA
:101F200039B139780173206B01302063E08E0138BC
:101F3000E086012518F1010032D101E0FEF76AFFC9
:101F4000E08E10B9E08F002852D0206881688907A0
:101F50000ED5E18E61B1012D0AD1216B00250978E2
:101F60000173216B206801312163E18E0139E18623
:101F70008168C907E2D0E18F0029DFD0C068A16B7A
:101F800001250870A06B0130A063E08F0138E08765
:101F9000D4E700BFFEF73EFFA0EB090040453DD26D
:101FA000E08E08B9E08F18B32068816889070ED5E4
:101FB000E18E61B1012D0AD1216B002509780173F1
:101FC000216B206801312163E18E0139E18681684E
:101FD000C907DFD0E18F0029DCD0C068A16B0125E3
:101FE0000870A06B0130A063E08F0138E087D1E773
:101FF0002046022101224346CDF8009001F02EFD3B
:10200000B0B1606D40F02000606520206065002068
:1020100084F85000012003B0BDE8F083012084F86B
:102020005100002084F85000032003B0BDE8F08385
:1020300040F20800C2F20000006849F68171C1F266
:102040005E61A0FB0101480D4FF47A714843029094
:102050006068B0F5827F0BD1204680210022434684
:10206000CDF8009001F0FAFC0028CAD124E000BFAE
:10207000029808B302980138029020688068000630
:102080001AD50298C0B10298013802902068806881
:10209000000611D5029878B10298013802902068A4
:1020A0008068000608D5029830B102980138029085
:1020B000206880680006DBD4A06838B90020019051
:1020C0002068C1680191806801900198012084F81E
:1020D0005100002084F85000606D002818BF0120D6
:1020E00003B0BDE8F0830000411E0020B0EB116F8B
:1020F0001CBF012070474EF21002CEF20002516068
:102100004EF62351CEF20001F0230B7007219060B0
:102110001160704780B586B045F200010068C4F2D6
:102120000001002288420592CDE903220292019229
:1021300002D006B080BD00BF43F630000092C4F26A
:102140000200036943F480130361036903F48013FD
:102150000093009B0092036843F00403036000684F
:1021600000F00400009000984FF48050019012207D
:10217000CDE90202032004900820059001F5DC302F
:1021800001A9FEF771FD06B080BD000040F21041CC
:10219000C4F202010A68110412D002F008010123FE
:1021A00083EAD101530758BF0231D30708BF043176
:1021B000920758BF08310138072805D9704700BF7A
:1021C000002101380728F9D8DFE800F006180412CA
:1021D00004040424F2E700BF4807EFD540F2910061
:1021E000C2F20000017841F008010170704700BFA1
:1021F000880748BF04F078BEE0E700BFC8B20828EF
:10220000DCD340F29100C2F20000017841F00201FB
:1022100001707047C80708BF704740F29100C2F2D2
:102220000000017841F020010170704780B540F254
:102230009800C2F200000078012805D040F2920018
:10224000C2F20000007808B180BD00BFFEF7A8FB15
:1022500044F25C01C2F2000191F87810490658BFBF
:1022600080F48060002808BF80BD4DF2246CC0F669
:10227000000CBCF80020BCF80230024018BF01225C
:102280000340BCF8041018BF012342EA4302014096
:10229000BCF8063018BF012142EA810113EA0002AE
:1022A000BCF8083018BF012241EAC20113EA00025B
:1022B000BCF80A3018BF0122184041EA021118BFC9
:1022C000012041EA40100006BED004F00DFE0120BE
:1022D000BDE8804009F014BB142040F25412C4F24F
:1022E0000200C2F2000201689288D20962F3CC11A6
:1022F00001607047F0B581B040F25417C2F2000798
:10230000387808B101B0F0BD142644F2F004C4F2EC
:102310000206C2F200043168A28B4EF2041062F38E
:102320000501316041F21041C4F200016FF0010279
:102330000A603168628B21F4FC511143CEF2000037
:1023400031604FF40001016001213970216C0029D6
:1023500063D17978BA78914218D14FF48021C0F8CE
:102360008010BFF34F8F002044F25C05BFF36F8FE6
:102370003870C2F2000595F86600FF2800F0F08082
:1023800040F29801C2F200010978FEE0BA7843F603
:102390005C63C2F2000303EBC200418840F62C46A6
:1023A0000139C4F200062064316094F83A60017982
:1023B00033F832208E42228702D1E16B11E000BF58
:1023C00044F23412C2F2000284F83A1002EB4111D6
:1023D0008A69E1635208C4E90022C4E90222C4E91F
:1023E00004220A68437991F81CC0DA4022624A68E4
:1023F000FE88DA4062628A68C088DA40A262CA68EF
:1024000086EA0C06DA40E2620A69A683DA402263B1
:102410004969D940616308F08BF840F29000C2F23C
:1024200000000078012808BF05F03CFEE26B206840
:10243000216A9369084440F2AC019842C2F200015B
:1024400020600DD9C01A2060107F0E68C0074FF0C1
:10245000FF3008BF012030440860802001E000BF49
:1024600000206668656A2E449E4266600DD9F61AA1
:102470006660167F00F58070B6074D684FF0FF3636
:10248000608358BF01262E444E60A668A56A2E447C
:102490009E42A6600CD9F61AA660167F8D68760754
:1024A0004FF0FF3658BF012600F500702E448E60B5
:1024B000E668E56A2E449E42E6600CD9F61AE660AC
:1024C000167FCD6836074FF0FF3658BF012600F55E
:1024D00080602E44CE602669256B2E449E42266184
:1024E0000DD9F61A2661167F00F50060F6060D6913
:1024F0004FF0FF36608358BF01262E440E61666997
:10250000656B2E449E4266610CD9127FF31A9206C7
:1025100063614B694FF0FF3258BF012200F58050D4
:102520001A444A6140F29801C2F200010A78C9884F
:10253000042A228F08BF0840511E0A04218708D1AF
:1025400000212164B9780131CAB2203A18BF0A4685
:10255000BA70B988484060830020387001B0F0BD7F
:1025600040F29201C2F200010A7840F29801C2F2F0
:1025700000010978002AA1F18003B3FA83F318BFA0
:1025800001225B091A43012A0ED104290CD001F063
:1025900055FD95F8780040070AD5A6F114004021B2
:1025A000FEF7F6F909E000BF95F878004007F4D58A
:1025B000A6F114004021FEF7EFF9E06B407F10B167
:1025C000002007F0B5FF042001B0BDE8F04009F09D
:1025D000ABB9000080B53E2808DC182830D021288F
:1025E0000ED10820BDE8804009F09EB93F282BD0CD
:1025F0007E2805D10220BDE8804009F095B900BFD2
:1026000041B2B1F1FF3F25DD40F2501CC2F2000C97
:102610009CF800E09CF801100EF10102D3B2FE3BE1
:1026200018BF1346DAB28A4208BF80BD43F65C7118
:10263000C2F2000101F80E008CF8003080BD00BF2E
:10264000BDE8804004F050BC0120BDE8804009F0A6
:102650006BB900BF84381D28F0D8DFE800F0112FD7
:102660000F0F0F0F0F0F0F0F0F0F4D47233B535936
:10267000716B0F1D4129175F650F7D77DEE700BF86
:102680002020BDE8804009F04FB900BF0820BDE818
:10269000804009F02BB900BF0120BDE8804009F05F
:1026A00025B900BF0420BDE8804009F033B900BF60
:1026B0000420BDE8804009F019B900BF40F298003D
:1026C000C2F2000000788006B8D54020BDE8804006
:1026D00009F02AB90820BDE8804009F01BB900BF05
:1026E0000220BDE8804009F001B900BF0220BDE82A
:1026F000804009F00FB900BF0120BDE8804009F01B
:1027000009B900BF1020BDE8804009F003B900BF3F
:102710002020BDE8804009F0FDB800BF1020BDE8D2
:10272000804009F0E3B800BF2020BDE8804009F0F8
:10273000DDB800BF8020BDE8804009F0EBB800BFE5
:102740004020BDE8804009F0E5B800BF8020BDE82A
:10275000804009F0CBB800BF4020BDE8804009F0C0
:10276000C5B80000FEE700002DE9F04F82B00B680D
:1027700093FAA3F2B2FA82F233FA02F768D000F1C8
:102780002007019700F124074FF0010A4FF00309D9
:10279000009720E03B0A93FAA3F3B3FA83F39B007C
:1027A000B7F5807F38BF8023009CD1F814E02568FE
:1027B0000F279F40BD430EFA03F32B432360D1E95B
:1027C00000370568B74005EA0C052F430760013262
:1027D00033FA02F73CD00AFA02F413EA0407F6D0FF
:1027E0004C68631E022B97FAA7F319D2B3FA83FE43
:1027F000D0F808B04FEA4E06D1E902C809FA06F54A
:102800002BEA050B0CFA06F343EA0B0383604368DB
:102810006FEA050CBB4308FB07F52B43436007E059
:10282000B3FA83FE4FEA4E0609FA06F56FEA050C85
:102830000B69C568B34005EA0C052B43022CC36045
:10284000BDD13B06A6D0019C4FEA8E03ADE700BF89
:10285000002002B0BDE8F08F80B543F6040EC4F24C
:10286000020EDEF8042002F00C0342F20042082BB4
:10287000C0F2F40206D0042B22D141F60032C0F29D
:10288000B7021DE0DEF80030DEF800C05B0241F662
:102890000033C0F2B70358BF13460CF03F0CDEF80C
:1028A0000020B3FBFCFCDEF80030C2F3881202FB10
:1028B0000CFCC3F30143022202EB4302BCFBF2F225
:1028C0000260DEF804304DF2E051C3F30313C0F6AA
:1028D0000001C95C4DF2F05322FA01F14160DEF8CB
:1028E0000420C0F60003C2F382229A5C21FA02F2AD
:1028F0008260DEF80420C2F342329A5CD140C160AB
:1029000080BD000080B58A688446087BD1E900E379
:1029100022F4F842104323F4F04210432EF4E04234
:102920001043CA89D1E9041322F4C04221F4804142
:102930000843104340EA03010020CCF8441080BD56
:1029400080B540F6FF3E0368C4F2000E40F2004C32
:1029500002467045C4F2010C24DCB2F1804F2ED047
:1029600040F20040C4F20000824228D040F600004D
:10297000C4F20000824222D041F6FF70C4F200008F
:10298000824226DC724539DCB2F1804F5AD040F2E7
:102990000040C4F20000824254D040F60000C4F26D
:1029A00000004DE040F60040C4F20000824206D034
:1029B000624504D00020C4F201008242DCD14868A4
:1029C00023F07003034341F6FF70C4F2000082421B
:1029D000D8DD43F6FF70C4F20100824220DC42F2EF
:1029E0000000C4F2000082422CD00020C4F201009A
:1029F000824227D0624525D028E000BF40F6004043
:102A0000C4F2000082421DD041F60000C4F2000072
:102A1000824217D041F60040C4F2000010E000BF2F
:102A200044F20000C4F2010082420BD044F60000E0
:102A3000C4F20100824205D044F20040C4F2010019
:102A4000824203D1C86823F440730343136088684B
:102A500042F48063D06208886345906204BF0869CD
:102A60001063506940F001010020516180BD0000F9
:102A70002DE9F041FF294FF0010341DC012971D01C
:102A8000102940F0E680016A6FF0100621F0100175
:102A90000162036A4168D0F818C01569D2E900E400
:102AA00023F0300306EA051540F200462B4340F4BC
:102AB0008065C4F20106B54243EA041316D102F15F
:102AC000140898E860016FF0400723F0C003946891
:102AD00007EA85152B4343EA8413B40040F6030547
:102AE00021F44061AC43214341EAC8012CF4E6479C
:102AF00047EA0E2741608761D1688163A7E000BF84
:102B0000B1F5807F68D0B1F5805F40F0A280016AA6
:102B100040F2004721F480510162046A4368C169B0
:102B2000D2E900EC156940F48066C4F20107BE42A8
:102B300004D1966923F4804343EA861321F4E641E5
:102B40002D0341F6FF7641EA0E2124F44054B543AB
:102B50004360C1612C43D16844EA0C3201640262D3
:102B600076E000BF016A40F2004421F001010162F9
:102B700040F48065C4F20104016A4368D0F818C0CB
:102B8000A5421569D2E900E421F0030125F0010511
:102B900041EA050141EA040114D102F1140898E860
:102BA00060016FF0040721F00C01946807EA8505C5
:102BB000294341EA840123F4407326F4007423433B
:102BC00043EA48032CF0730747EA0E074360876126
:102BD000D268426301623BE0016A40F2FF1621F4D1
:102BE00080710162036A4168D0F81CC01569D2E99E
:102BF00000E42D0223F44073B54340F200462B431A
:102C000040F48065C4F20106B54243EA042316D1BC
:102C100002F1140898E8600140F2FF77AD0223F456
:102C200040639468BD432B4343EA8423340142F25A
:102C30000F0521F44051AC43214341EA48112CF0E7
:102C4000730747EA0E074160C761D168C163036239
:102C500000231846BDE8F08170B584B00446C06812
:102C6000800400F18380E0680D4649F20C618843DE
:102C7000D5E9011E05F10C0C9CE848100843AA692F
:102C8000184330431043E06020696E4620F4405002
:102C900040EA0E002061606920F4407040EA0C00B8
:102CA00060613046FFF7D8FD44F6FF70C4F20000C3
:102CB00084424FF0010013DC44F20041C4F20001F1
:102CC0008C4225D044F60001C4F200018C421FD092
:102CD00044F60041C4F200018C4219D004B070BD2A
:102CE00045F20001C4F200018C4211D041F2000112
:102CF000C4F201018C424FF00C0105D041F20042B8
:102D0000C4F201029442E9D1705820B92EE000BF0C
:102D10000821705850B32B6843B3A9691922B1F543
:102D2000004FA0FB020125D15A00DB0FFDF7B6FAD8
:102D300048F21F51C5F2EB11A0FB01235A094FF6CF
:102D40009C73C0F6FF7303F1805302FB0300322330
:102D500003EBC000A0FB01014FF4F87000EA111072
:102D600000EB0210C1F3421121E000BF012004B0CA
:102D700070BD00BF9A009B0FFDF790FA48F21F51FB
:102D8000C5F2EB11A0FB01235A094FF69C73C0F664
:102D9000FF7302FB0300322303EB0010A0FB0101D1
:102DA000F02000EA511000EB0210C1F343114FF67E
:102DB000F07210400844A060002004B070BD000014
:102DC0002DE9F04F87B0002543F630000695CDE998
:102DD0000455CDE902550195C4F20200016841F2A3
:102DE000000941F0100101600168C4F2020901F01C
:102DF00010010191019901950168002241F08001C3
:102E00000160016801F0800101910199019501685B
:102E100041F001010160016801F001010191019996
:102E20000195016841F002010160016801F00201B1
:102E3000019101990195016841F008010160016863
:102E400001F00801019101990195016841F0040127
:102E5000016000681F2100F00400019001984846BD
:102E6000FDF7D2FFA9F58054204641F6FF710022FC
:102E7000FDF7CAFFA9F58068404640F6FF710022C1
:102E8000FDF7C2FF0F2002AE029001274FF0030BA7
:102E900048463146CDE90375CDF814B0FDF7E4FEA0
:102EA0004FF0100A48463146CDE902A7CDE9045556
:102EB000FDF7DAFE41F6FF70CDE902072046314604
:102EC000CDE9045BFDF7D0FE40F20F4002904FF4D5
:102ED0000410A9F54064CDE9030720463146FDF70B
:102EE000C3FE40F6FF70CDE9020740463146CDE90A
:102EF000045BFDF7B9FE20463146CDE902A50497F3
:102F0000FDF7B2FE282000210022FEF739F9282023
:102F1000FEF724F907B0BDE8F08F000080B543F656
:102F20009C4045F20041C2F20000C4F2000148F2A8
:102F3000A06200234FF4804CC0F2010280E80E0032
:102F4000C0E9033CC0E90533C0E90733FDF79CFF46
:102F5000002808BF80BDBDE88040FDF775BC0000BB
:102F600080B543F6F04043F60041C2F20000C4F2DF
:102F700000014FF48272002380E80E0000F114017A
:102F80004FF4007C4FF0300E81E808500A21C0E970
:102F90000333C0E90833C0E90A31FEF713FC002807
:102FA00008BF80BDBDE88040FDF74EBC2DE9F04173
:102FB0009AB0002643F630071896CDE91666CDE99B
:102FC0001466CDE91266CDE91066CDE90E66CDE94D
:102FD0000C66CDE90A66CDE90866CDE90666CDE95D
:102FE0000466CDE90266CDE90066C4F2020778699D
:102FF000002440F0010078617869C4F2010400F017
:10300000010019901998A720ADF8500044F61F60F0
:10301000CDE9160614A9204615961896FFF790FCE0
:10302000206844F2070120F080002060A0680CAD09
:103030008843A060A069012140F00800A0616020E1
:10304000CDE90C0640F2DB50CDE90F0620462A46BA
:103050000E96CDE9116613964FF00108FFF708FDB3
:10306000A069102120F00400A061A0692A4640F464
:103070000060A0612046FFF7FBFCA0694FF480715F
:1030800020F48060A061E0692A4640F00800E06119
:103090002046FFF7EDFCE0694FF4805120F004007A
:1030A000E061E0692A4640F40060E0612046FFF7F5
:1030B000DFFCE06906A920F48060E061606820F030
:1030C00070006060A06820F08000A0604FF40050A5
:1030D000CDE90A062046ADF82660CDE906660896D9
:1030E0008DF82460FFF70EFC3868694640F0100048
:1030F0003860386800F01000199019984FF4D440E7
:1031000000900220CDE9010604F58830CDE9036680
:10311000CDF81480FFF728FB1AB0BDE8F08100005D
:10312000F0B595B0002443F630051394CDE9114471
:10313000CDE90F44CDE90D44CDE90B44CDE9094477
:10314000CDE90744CDE90544CDE90344CDE9014487
:10315000C4F2020528690FA940F00100286128691E
:103160004FF0804600F001001490149842F2CF0016
:10317000CDE911044FF08040ADF83C401094FFF7CA
:10318000DFFB306844F2070120F080003060082641
:10319000C4F20006306807AA884330603069012114
:1031A00040F0080030616020CDE907044FF0804016
:1031B000CDE909440B940127FFF75AFC306901A9B6
:1031C00020F00400306156F8040C20F0700046F83E
:1031D000040C306820F080003060286840F0010066
:1031E0002860286800F00100149014984FF4004003
:1031F00001900220CDE902040020C4F20200CDE9D2
:1032000004440697FFF7B0FA15B0F0BD2DE9F04180
:1032100094B0002643F630081296CDE91066CDE949
:103220000E66CDE90C66CDE90A66CDE90866CDE902
:103230000666CDE90466CDE90266CDE90066C4F212
:103240000208D8F8100040F2184740F00200C8F811
:103250001000D8F81000C4F2000700F0020013902C
:1032600013985320ADF8380044F61F60A7F11804F6
:10327000CDE910060EA920460F96FFF761FB57F81F
:10328000180C44F2070120F0800047F8180C57F89A
:10329000100C06AD884347F8100C3868012140F047
:1032A000080038606020CDE9060640F2DC50CDE928
:1032B000090620462A460896FFF7DAFB38681021EF
:1032C00020F00400386038682A4640F40060386016
:1032D0002046FFF7CDFB38684FF4807120F4806002
:1032E000386078682A4640F0080078602046FFF78A
:1032F000BFFB78684FF4805120F004007860786854
:103300002A4640F4006078602046FFF7B1FB7868F9
:10331000694620F48060786057F8140C20F0700043
:1033200047F8140C57F8100C20F0800047F8100CE8
:10333000D8F8000040F00400C8F80000D8F80000F9
:1033400000F00400139013984FF470700090022066
:10335000CDE90106059007F5003000F57A70CDE95A
:103360000366FFF701FA14B0BDE8F08110B586B02E
:10337000002043F640010490CDE90200CDE90000B1
:10338000C4F202010A6840F6084442F008020A60EA
:1033900009684FF4802201F00801059105994EF665
:1033A0000C51CEF2000109684EF23241CEF200011A
:1033B00008704EF20411CEF200010A60C4F200045B
:1033C000ADF80000CDE901000390A4F108006946C2
:1033D000FFF7B6FA54F8080C44F2070120F0800019
:1033E00044F8080C20688843206054F8040C20F04E
:1033F000700044F8040C206820F08000206006B0C3
:1034000010BD000010B586B0002043F640010490C6
:10341000CDE90200CDE90000C4F202010A6841F2E0
:10342000004442F020020A6009684FF4000201F0F3
:103430002001059105994EF60C51CEF20001096864
:103440004EF23741CEF2000108704EF20411CEF276
:1034500000010A60ADF8000001904FF6FF70C4F261
:103460000004029069462046FFF76AFA206820F0BF
:1034700080002060606820F070006060A06820F02C
:103480008000A06006B010BD80B543F6485045F2FC
:103490000001C2F20000C4F2000100234FF00C0C46
:1034A0004FF4E13280E80E00C0E90333C0E905C300
:1034B000C361FDF7B5FC002808BF80BDBDE88040B2
:1034C000FDF7C2B9B0B58EB0002443F630000C94BD
:1034D000CDE90A44CDE90844CDE90644CDE90444E8
:1034E000CDE90244CDE90044C4F20200416941F251
:1034F0000C0541F0100141614169C4F2010501F080
:1035000010010D910D99016841F002010160006800
:10351000694600F002000D900D98C0200090022036
:1035200001900320CDE90204072005904FF2F4300A
:1035300028440494FFF718F94FF46120CDE90604FC
:103540000C20CDE90A04A5F10C0006A9CDE9084438
:103550000C94FFF781FB686820F490406860A868CD
:1035600020F02A00A860286840F4005028600EB0BF
:10357000B0BD0000FEE7000070470000704700008B
:1035800070B582B041F20004C4F202040026204665
:10359000012100228DF80760FDF736FC40F2DC05C2
:1035A000C2F200051220A872686905F10901022221
:1035B0000223FEF7B7FA68690DF107010122022321
:1035C000FEF7B0F90546204601210122FDF71CFC5B
:1035D0009DF80700002D18BF3046C0B202B070BD84
:1035E0002DE9F04F83B040F2DC044021C2F2000428
:1035F000C4F2001141F200064FF484024FF48643F6
:1036000084E80E0004F109010025C4F202060191CC
:10361000C4E90505304601210122A71DE56184F8B2
:103620002050C4F82150C4F8255084F8295084F85B
:103630003A50C4F83650C4F83250C4F82E50C4F88A
:103640002A50FDF7E1FB304601210022FDF7DCFBAB
:1036500047F60A016069A4F80110214603220223FB
:103660004FF003084FF0020AFEF75CFA30460121E2
:103670000122FDF7C9FB304601210022FDF7C4FB02
:1036800047F60B016069A4F80110214603220223CA
:10369000FEF748FA304601210122FDF7B5FB30461E
:1036A00001210022FDF7B0FB4FF470416069A4F8DE
:1036B0000110214603220223FEF734FA304601218D
:1036C0000122FDF7A1FB304601210022FDF79CFB02
:1036D0004FF20C016069A4F8011021460322022375
:1036E000FEF720FA304601210122FDF78DFB30461E
:1036F00001210022FDF788FB606921460322022395
:10370000A4F801A0FEF70EFA304601210122FDF7D0
:103710007BFB304601210022FDF776FB4FF6087156
:103720006069A4F80110214603220223FEF7FAF98A
:10373000304601210122FDF767FB304601210022BE
:10374000FDF762FB4FF606716069A4F8011021468F
:1037500003220223FEF7E6F9304601210122FDF79C
:1037600053FB304601210022FDF74EFB4FF601715D
:103770006069A4F80110214603220223FEF7D2F962
:10378000304601210122FDF73FFB30460121002296
:10379000FDF73AFB4FF60D716069A4F80110214660
:1037A00003220223FEF7BEF9304601210122FDF774
:1037B0002BFB304601210022FDF726FB60692146E4
:1037C00003220223A4F801804FF00308FEF7AAF9B0
:1037D000304601210122FDF717FB3046012100226E
:1037E000FDF712FB60694FF6097B21460322022395
:1037F000A4F801B0FEF796F9304601210122FDF749
:1038000003FB304601210022FDF7FEFA60694FF606
:103810000779214603220223A4F80190FEF782F9DA
:10382000304601210122FDF7EFFA30460121002246
:10383000FDF7EAFA04216069A4F801102146032289
:103840000223FEF76FF9304601210122FDF7DCFA71
:10385000304601210022FDF7D7FA05216069A4F85E
:103860000110214603220223FEF75CF930460121B4
:103870000122FDF7C9FA304601210022FDF7C4FA02
:1038800043F60A016069A4F80710394603220223AF
:10389000FEF748F9304601210122FDF7B5FA30461E
:1038A00001210022FDF7B0FA43F60B016069A4F88C
:1038B0000710394603220223FEF734F9304601216E
:1038C0000122FDF7A1FA304601210022FDF79CFA02
:1038D0004FF47F416069A4F80710394603220223A0
:1038E000FEF720F9304601210122FDF78DFA30461E
:1038F00001210022FDF788FA4FF60C716069A4F8E7
:103900000710394603220223FEF70CF93046012145
:103910000122FDF779FA304601210022FDF774FA01
:103920006069394603220223A4F807A0FEF7FAF8DB
:10393000304601210122FDF767FA304601210022BD
:10394000FDF762FA43F601716069A4F80710394681
:1039500003220223FEF7E6F8304601210122FDF79B
:1039600053FA304601210022FDF74EFA43F60D715D
:103970006069A4F80710394603220223FEF7D2F843
:10398000304601210122FDF73FFA30460121002295
:10399000FDF73AFA6069394603220223A4F807804A
:1039A000FEF7C0F8304601210122FDF72DFA30461E
:1039B00001210022FDF728FA60693946032202231B
:1039C000A4F807B0FEF7AEF8304601210122FDF75A
:1039D0001BFA304601210022FDF716FA60693946CC
:1039E00003220223A4F80790FEF79CF83046012139
:1039F0000122FDF709FA304601210022FDF704FA01
:103A000043F605716069A4F80710394603220223C2
:103A1000FEF788F8304601210122FDF7F5F930461E
:103A2000012100228DF80B50FDF7EEF9112160699C
:103A3000A172019902220223FEF774F860690DF168
:103A40000B0101220223FDF76DFF30460121012207
:103A5000FDF7DAF903B0BDE8F08F00002DE9F0437F
:103A600081B0089C984615460E468146FDF7D2F96E
:103A7000201A00EB0804FDF7CDF940F20801C2F26C
:103A800000010968C1F3CB3161430091D9F80010FE
:103A90008A683240921BB2FA82F25209AA423DD0A1
:103AA000074618F1010031D0FDF7B4F9C01BA04260
:103AB00038D2009800990028A1F101010091D9F8AD
:103AC0000010896808BF044601EA0600801BB0FAAE
:103AD00080F04009A842E7D120E000BF886830406C
:103AE000801BB0FA80F04009A84217D088683040A7
:103AF000801BB0FA80F04009A8420FD0886830409F
:103B0000801BB0FA80F04009A84207D08868304096
:103B1000801BB0FA80F04009A842DFD1002001B03C
:103B2000BDE8F083D9E900014268B1F5827F22F057
:103B3000E00242600BD1D9F80810B1F5004F02D075
:103B4000B1F5806F03D1016821F040010160D9F81F
:103B50002810B1F5005F07D1016821F40051016020
:103B6000016841F400510160012089F851000020F2
:103B700089F85000032001B0BDE8F08370470000D1
:103B8000FDF770BA4EF68850CEF2000001684FF093
:103B9000000C41F47001016043F60001C4F202011F
:103BA0000A6842F001020A60C1F808C00B684FF6CB
:103BB000FF72CFF6F6621A400A6043F21002C2F2B8
:103BC00000424A600A6822F480220A60C1F80CC0F0
:103BD0004FF0006140F8801C7047000040F6104034
:103BE000C4F200000168C90708BF70476FF0010107
:103BF000016000214161FEF77DBB000041F21040F1
:103C0000C4F200000168C90708BF70476FF00101E6
:103C10000160002141614EF28410CEF200004FF4A9
:103C200000010160BFF34F8FBFF36F8FFEF754BBEE
:103C3000B0B50446006804F108030ECB05691943CA
:103C400025F440552A4302616269E3691143C26861
:103C5000194349F20C639A431143C1604169A26957
:103C600021F4407141F20043114340F48062C4F2F8
:103C700001039A42416103D1FDF784FB02E000BFDA
:103C8000FDF76CFBE1694FF69C7563681922C0F67D
:103C9000FF75B1F5004FA0FB02011FD15A00DB0FE9
:103CA000FCF7FCFA48F21F51C5F2EB11A0FB01230F
:103CB0005A0905F1805302FB0300322303EBC000D5
:103CC000A0FB01014FF4F87000EA111000EB0210A4
:103CD000C1F34211084421688860B0BD9A009B0F6F
:103CE000FCF7DCFA48F21F51C5F2EB11A0FB0123EF
:103CF0005A0902FB0500322303EB0010A0FB01016F
:103D0000F02000EA511000EB0210C1F34311084407
:103D100021688860B0BD000010B541F20004C4F213
:103D20000104E068800658BF10BD6068C0B2FEF7AD
:103D300051FC6FF02000206010BD0000FEE7000085
:103D400010B52DED028B91ED008A044604F0E6F9E2
:103D5000B5EE408AF1EE10FA20DDB7EE000AB4EEBF
:103D6000408AF1EE10FAC8BFB0EE408AFF2C19D09D
:103D7000052C13D844F25C01C2F2000101EB84016E
:103D800040F69C1091ED0C0AC2F2000000EB84009A
:103D900028EE000A80ED008A80ED060ABDEC028B59
:103DA00010BD00BF44F25C01C2F2000191ED0C0AAB
:103DB00040F69C1091ED0D1A91ED0E2A91ED0F3AFF
:103DC00091ED104A91ED115AC2F2000028EE000A5E
:103DD00028EE011A28EE022A28EE033A28EE044AB9
:103DE00080ED060A28EE050A80ED008A80ED018A42
:103DF00080ED028A80ED038A80ED048A80ED058AD9
:103E000080ED071A80ED082A80ED093A80ED0A4A14
:103E100080ED0B0ABDEC028B10BD000090ED001A86
:103E200090ED012A21EE010A9FED335AB5EE401ABA
:103E300090ED023A90ED034AF1EE10FA18BFB0EEA1
:103E4000405A22EE020A30EE050AB5EE402AF1EEA3
:103E500010FA18BFB0EE405A23EE030A30EE050AFE
:103E6000B5EE403AF1EE10FA18BFB0EE405A24EE2B
:103E7000040A90ED046A30EE050AB5EE404AF1EE10
:103E800010FA18BFB0EE405A26EE060A90ED057AF9
:103E900030EE050AB5EE406AF1EE10FA18BFB0EE4A
:103EA000405A27EE070A30EE050AB5EE407AF1EEE9
:103EB00010FA18BFB0EE405AB1EEC50AB7EE005A7C
:103EC00085EE005A25EE011A25EE022A25EE033A68
:103ED00025EE044A25EE066A25EE075A80ED001A03
:103EE00080ED012A80ED023A80ED034A80ED046AFC
:103EF00080ED055A704700BF0000000040F61440F6
:103F0000C4F20200016800680222C9B202EA50103D
:103F100040EAD1107047000010B540F60044C4F2EA
:103F2000020420468021FCF733FD20464021BDE8F5
:103F30001040FCF72DBD0000B0B540F29805C2F26C
:103F400000056978002918BFB0BD48B1410617D4F3
:103F500040B2B0F1FF3F21DD00202873B0BD00BFAB
:103F600040F60044C4F2020420468021FCF710FD14
:103F700020464021FCF70CFD00202873B0BD00BF97
:103F800040F60041C4F20201044608468021FCF7D5
:103F900003FD204640B2B0F1FF3FDDDC40F60040BB
:103FA000C4F202004021FCF7F7FC00202873B0BDEA
:103FB00010B540F60044C4F2020420468021FCF70C
:103FC000E7FC20464021BDE81040FCF7E1BC0000C2
:103FD000B0B540F29805C2F20005297802292BD02D
:103FE000044604F09BF86878002818BFB0BDACB157
:103FF000600606D540F60040C4F202008021FCF7BE
:10400000CBFC60B2B0F1FF3F14DC40F60040C4F2DC
:1040100002004021FCF7C0FC0CE000BF40F6004469
:10402000C4F2020420468021FCF7B2FC2046402165
:10403000FCF7AEFC00202873B0BD00007047000004
:1040400070B5B3EE041A20EE010A044607F0A4FE90
:10405000BDEEC00A10EE100A60B340F29805C2F23D
:104060000005697831BB002CA0F101044FF6FF7602
:1040700012D000BF04F06CF8A87880071AD4322060
:10408000FCF740FD16FA84F4A0B2A04212D0687882
:104090000028EFD00EE000BF04F040FA3220FCF719
:1040A00031FD16FA84F4A0B2A04208BF70BD687852
:1040B0000028F1D070BD00002DE9F0414FF6FF75EA
:1040C000FCF7ACFD43F61044C4F20204F32044F8BC
:1040D000040C06200221FCF7B9FB4CF25030FCF72F
:1040E000D9FB206840F29C1620F0FA0020600024E2
:1040F000C0F60404C2F200064FF400674FF6FC78E5
:1041000007E000BF07EB080087B2043604F104049F
:1041100087B13288AA4204D0012021460023FCF74F
:104120000FFD7288AA42EDD0A11C01200023FCF7EC
:1041300007FDE7E7BDE8F041FCF7F8BC40F29C1151
:10414000C2F20001085C70472DE9F04F85B00021F4
:10415000C0F604014A1C04928A1C0392CA1C0292F3
:104160000A1D40F29C170020019201F1050B01F19C
:10417000060901F1070A01F1080201F1090301F141
:104180000A0401F10B0501F10C0C01F10D0EC2F254
:10419000000700BF465C07EB00083E54049E064340
:1041A000367888F80160039E0643367888F8026006
:1041B000029E0643367888F80360019E06433678EF
:1041C00088F8046040EA0B06367888F8056040EA13
:1041D0000906367888F8066040EA0A06367888F8D4
:1041E000076040EA0206367888F8086040EA03066D
:1041F000367888F8096040EA0406367888F80A605C
:1042000040EA0506367888F80B6040EA0C063678F6
:1042100088F80C6040EA0E06367888F80D6001F1E7
:104220000E060643367888F80E6001F10F06064345
:1042300036781030B0F5006F88F80F60AAD140F2E0
:104240009C10C2F2000000780A2808D040F29C10AE
:10425000C2F200004FF40061FF22FCF707F905B03D
:10426000BDE8F08F40F29C12C2F200021154704778
:104270002DE9F04F81B02DED088B98B043F6CC348A
:10428000C2F20004054620466421FCF7F7F843F625
:104290003046C2F20006D6E90001D6F80B20B3681A
:1042A000E260C4F80930C4F80510C4F8010095F8BC
:1042B00000A0BAF1240F09D1012095F803B0012123
:1042C00005900320A4F8011004E000BF00210020A5
:1042D000D3460591BBF1000F4FF000018DF85F0050
:1042E000089100F03B839FEDAC9A9FEDACAA16AE0F
:1042F0004FF000090027069107910991ABF15B018E
:1043000011F11A0FC0F0328301308DF85F0028469A
:104310000DF15F01324604F0AFFA002800F02E8361
:104320009DED168AB0EE480A08F0ADF8BDEEC0BAB1
:10433000B8EE4B0A38EE400A20EE090A1BEE108A4E
:1043400007F04EFFABF14102192A4FF0140000F2C2
:104350000E83BDEEC00A10EE101ADFE812F01B004B
:10436000AD00CB000803B700F1003D000803E500F5
:104370002101BF000D013501D50008031501DD0045
:10438000AD012D012500080308030803F9003300DF
:10439000030100BF43F6CC34C2F2000484ED148A5A
:1043A00047F008070D208FE1B4EE4A8AF1EE10FACB
:1043B00000F3B68443F6CC34C2F2000484F84080A3
:1043C000092081E143F6CC34C2F2000484ED128A64
:1043D00047F002070B2077E1B8F15E0F00F2C782C9
:1043E0000722DFE818F08D018D018D018D01C201DA
:1043F000C402C402C402C402C402BB01C402C40297
:10440000C402C402C402C402DD01DD01DD01EB010E
:10441000EB01C402C402C402C402C402C402BB0150
:10442000C402BB01C402C402C402C402C402C40266
:10443000C4028D01C4028A02C402C402F501C4028E
:10444000C402C402C402C402F501C402C402C4020C
:10445000C2015F005F005F005F005F005F00C40299
:104460009B02C402C402C402C402C402C402C40245
:10447000C402C402C402C402C402C402C402C4020C
:10448000C402C402C4028302C402C402C402C4023D
:10449000C402C402C402C402C4020D020D02BB0164
:1044A0000302030243F6CC32A8F13600C2F2000246
:1044B000D071092221E200BF43F6CC34C2F20004DD
:1044C00084ED158A47F010070E20FDE043F6CC344A
:1044D000C2F2000484F85C801020F5E0099843F6ED
:1044E000CC34C2F2000440F0040084ED078A099045
:1044F0000320E9E043F6CC34C2F2000484ED168ACE
:1045000047F020070F20DFE043F6CC34C2F200046E
:1045100084ED0CBA0520D7E043F6CC34C2F2000497
:1045200084ED188A1120CFE0099843F6CC34C2F20A
:10453000000440F0010084ED058A09900120C3E0E9
:1045400043F6CC34C2F2000484ED048A0020BBE0C0
:1045500043F6CC34C2F2000484ED118A47F001071F
:104560000A20B1E043F6CC34C2F2000447F004075D
:104570000C2084ED138AA7E043F6CC34C2F2000489
:1045800084F82C8004209FE043F6CC34C2F200046F
:1045900084ED0D8A062097E00000C84200007F43AA
:1045A000099843F6CC34C2F2000440F0020084EDD6
:1045B000068A0990022087E043F6CC34C2F2000458
:1045C00084ED0F8A08207FE0002940F0A183B8F134
:1045D000640F00F2CC810B21DFE818F05601750161
:1045E00066005E0140013401C9014E011E013A011D
:1045F000C901C901C901C901C901C901C901C9016B
:10460000C901C901C901C901C901C901C901C9015A
:10461000C901C901C901C9016600C901C901C901AE
:10462000C901C901C901C901C901C901C901C9013A
:10463000C901C901C901C901C901C901C901C9012A
:10464000C901C901C901C901C901C901C901C9011A
:10465000C901C901C901C90166012401C901C90112
:1046600046012C01C901C901C901C901C901C9011A
:10467000C901C901C901C901C901C901C901C901EA
:10468000C901C901C901C901C901C901C901C901DA
:10469000C901C901C901C901C901C901C901C901CA
:1046A000C901C9016E0100BF43F6CC30C2F200005F
:1046B00080F8088007E100BF43F6CC34C2F2000462
:1046C00084ED0E8A072000BF012101FA00F010EAF4
:1046D000090F40F0998140F26131084205D0B5EEF2
:1046E000408AF1EE10FAC0F2978149EA00099DF87C
:1046F0005F0015F800B0BBF1000F7FF4FFAD45E19E
:104700000698000640F0988343F6CC30B8F1260FA7
:10471000C2F2000080F801804CD1A1F114021E2ADF
:104720004FF0140000F22381012303FA02F240F259
:104730000143C4F210031A4200F01981C8B2CD211E
:1047400048436FF0750143F6CC3401EBD020C2F240
:1047500000046070022001220690D5E029B9069875
:10476000000640F069830120069043F6CC30B8F192
:104770001C0FC2F2000080F8008018BFB8F15C0F77
:1047800040F0AE800A2902D0002940F05D8343F654
:10479000CC3401EB0800C2F2000400222070B3E028
:1047A00043F6CC32A8F11100C2F20002507102228D
:1047B000A3E000BF022006909EE000BF43F6CC328B
:1047C000C8F11500C2F20002D070062295E000BFC9
:1047D0000698000640F03083B8F1310F40F0A68013
:1047E00043F6CC340020C2F20004A7E043F6CC32FA
:1047F000C8F15E00C2F20002907005227DE000BFA9
:10480000002900F0A1800A2940F0B180B8F15A0FC8
:1048100000F0AD80042283E043F6CC30C2F2000009
:1048200040212EE043F6CC30C2F200000221017399
:1048300048E000BF43F6CC30C2F200000121817392
:1048400040E000BF43F6CC30C2F20000002128E077
:1048500043F6CC30C2F20000002112E043F6CC3027
:10486000C2F2000020211CE043F6CC30C2F200006E
:104870000121417326E000BF43F6CC30C2F20000B4
:10488000802141720D211EE043F6CC30C2F20000BF
:10489000032101720B2116E043F6CC30C2F2000076
:1048A000102181720C210EE043F6CC30C2F20000E0
:1048B0000121017306E000BF43F6CC30C2F20000D4
:1048C0000121C1730F21012088400799084240F05F
:1048D0001782014343F6CC340791C2F2000406E785
:1048E000B8F11E0F3FF44EAF002206E043F6CC3085
:1048F000C2F2000050224270012243F6CC3400295B
:10490000C2F2000440F0048201200799904008425E
:1049100040F0F68101430791E9E600BF39BB0A2266
:1049200043F6CC34C2F20004EEE700BF43F6CC34C9
:104930000A29C2F2000440F087820120A0710320FE
:1049400008220690E0E700BF43F6CC34A8F15A00F5
:10495000C2F2000420710322D6E700BF00204FF00E
:10496000000B099000254FF0000918E0012018B055
:10497000BDEC088B01B0BDE8F08F00BF022018B07D
:10498000BDEC088B01B0BDE8F08F00BF206B43F693
:104990003046DDE90615C2F20006BB46089008065F
:1049A0000F4608BF0227BBF1000F08BF0F465FEAA2
:1049B00089600DD549F28060089AC0F29800824261
:1049C00006DD1B2018B0BDEC088B01B0BDE8F08FF0
:1049D000BAF1240F069109D15FEAC9702CD11620D3
:1049E00018B0BDEC088B01B0BDE8F08FA0780128AD
:1049F0001AD1F8B2022831D1607878B350282DD07E
:104A00005FEAC970EBD029E0192018B0BDEC088B23
:104A100001B0BDE8F08F00BF042018B0BDEC088BDA
:104A200001B0BDE8F08F00BF7078B8B95FEAC97017
:104A300002D196ED050A0FE0E07801280ED1206939
:104A400008F0E0FC9FEDE40B53EC102B08F086F926
:104A500007F008FE00EE100A84ED040A5FEAC95070
:104A60005CBF3069E06394F80080B8F1040F0BD1AB
:104A70005FEA496006D41C2018B0BDEC088B01B079
:104A8000BDE8F08F29F04009607958B1012813D1B1
:104A900000204FF0020A089001200790E0780128DA
:104AA00013D035E001204FF0000A08900220079053
:104AB000E078012809D02BE002204FF0010A08908D
:104AC00000200790E078012822D15FEACB7040F007
:104AD000A1805FEA8B7000F1AD805FEA4B7000F15E
:104AE000B9805FEA0B7000F1C5805FEACB6000F12E
:104AF000D1805FEA8B600BD5A06D08F083FC9FED41
:104B0000B60B53EC102B08F029F907F0ABFDA065AC
:104B1000FFB2032F0CD1A079012809D1BBF1040FFA
:104B200006D0252018B0BDEC088B01B0BDE8F08F91
:104B300006F138030FCBCDF810A0AA460DF1400CBA
:104B4000D6E912568CE82F0050465FEA8A50159637
:104B500056D443F63046C2F200065D46B8F15C0F0B
:104B600000F0BC80B8F10A0F40F0C080002D00F0CA
:104B7000078519F0500F3FF47EAF94ED0D0A07F052
:104B800082FCBDEEC00A10EE100A06283BD894F84D
:104B90002C10142906D0022940F056815FEA0961E1
:104BA00000F1528194F80780002818BFA0F1010895
:104BB0005FFA88F004F1140105F0C6F8002800F04F
:104BC0006F8694F82C0029F05009142840F0E482F4
:104BD000E80740F04583A80700F15183680700F11A
:104BE0005D83280700F16D83E80600F17983A8064C
:104BF00000F185836078502800F0EB81FAE100BF76
:104C0000E079062858D91D2018B0BDEC088B01B0FA
:104C1000BDE8F08F606C08F0F5FB9FED6F0B53EC77
:104C2000102B08F09BF807F01DFD60645FEA8B70A5
:104C30007FF553AFA06C08F0E5FB9FED670B53ECDD
:104C4000102B08F08BF807F00DFDA0645FEA4B70A5
:104C50007FF547AFE06C08F0D5FB9FED5F0B53ECA1
:104C6000102B08F07BF807F0FDFCE0645FEA0B70A6
:104C70007FF53BAF206D08F0C5FB9FED570B53EC64
:104C8000102B08F06BF807F0EDFC20655FEACB60B5
:104C90007FF52FAF606D08F0B5FB9FED4F0B53EC28
:104CA000102B08F05BF807F0DDFC60655FEA8B60B5
:104CB0003FF522AF2CE700BF43F63046C2F20006B4
:104CC000B1795D4681423FF449AF10A905F03CF847
:104CD000002800F0E58594F800803FE7002D00F003
:104CE0004F84E8072CD196ED141A33E0002D18BF3D
:104CF000032F1DD1B8F1350F40F0358175E100BFAC
:104D0000152018B0BDEC088B01B0BDE8F08F00BFD6
:104D1000172018B0BDEC088B01B0BDE8F08F00BFC4
:104D2000262018B0BDEC088B01B0BDE8F08F00BFA5
:104D3000207996ED1A0AE90778D196ED081A9DE0D8
:104D400096ED080A9DED101A94ED112A30EE410AF5
:104D500030EE421A96ED1A0AA80784ED111A03D410
:104D600096ED151A0AE000BF96ED091A9DED112A7D
:104D700094ED123A31EE421A31EE431A680784ED8F
:104D8000121A03D496ED160A0CE000BF96ED0A1A2B
:104D90009DED122A94ED133A31EE421A31EE431A88
:104DA00031EE400A280784ED130A03D496ED170A62
:104DB0000AE000BF96ED0B0A9DED131A94ED142A3C
:104DC00030EE410A30EE420AE80684ED140A07D4B8
:104DD00096ED180A0EE000BF6666666666663940A4
:104DE00096ED0C0A9DED141A94ED152A30EE410A49
:104DF00030EE420AA80684ED150A03D496ED190A8E
:104E00000AE000BF96ED0D0A9DED151A94ED162AE5
:104E100030EE410A30EE420A84ED160A4FF00008E7
:104E20006078502800F0D580E4E000BFB8F1350F7D
:104E300012D1A90726D52EE0182018B0BDEC088B9A
:104E400001B0BDE8F08F00BF142018B0BDEC088B96
:104E500001B0BDE8F08F00BF30B196ED081A94EDB7
:104E6000112A31EE021A09E09DED101A96ED142A6E
:104E700094ED113A31EE021A33EE011AA90784EDCE
:104E8000111A05D496ED091A84ED121A03E000BF39
:104E9000B8F1350F12D1690702D496ED0A0A23E062
:104EA000B8F1350F02D1290722D52AE080B196ED5D
:104EB0000A0A94ED131A30EE010A15E0002800F0FA
:104EC000898196ED091A94ED122A31EE021ADBE778
:104ED0009DED121A96ED162A94ED133A31EE021A50
:104EE00033EE011A31EE000A290784ED130A05D4C6
:104EF00096ED0B0A84ED140A03E000BFB8F1350FFC
:104F000012D1E90602D496ED0C0A21E0B8F1350F72
:104F100002D1A80620D568E080B196ED0C0A94ED88
:104F2000151A30EE010A13E0002800F05F8196EDBB
:104F30000B0A94ED141A30EE010ADBE79DED140A1A
:104F400096ED181A94ED152A30EE010A32EE000A99
:104F5000A90684ED150A45D496ED0D0A84ED160ACE
:104F6000B8F1350F41D0B8F11E0F0BD0B8F11C0FBE
:104F70002AD104F11401062004F0E6FE50B900F035
:104F80008FBC00BF04F11401072004F0DDFE0028EF
:104F900000F08684002D6BD0E80704BF306A6061A2
:104FA000A8075CBF706AA06168075CBFB06AE06177
:104FB00028075CBFF06A2062E8065CBF306B606265
:104FC000A8065CBF706BA0624FF0000860785028A4
:104FD00010D1002D6CD01F2018B0BDEC088B01B093
:104FE000BDE8F08FB8F1350F46D16078022837D28E
:104FF0004FF00008022F5BD1002853D094ED040A33
:10500000B5EE400AF1EE10FA3FF4E9AC8B283DDD35
:1050100002210691A0F18C01032949D8DFE801F0B3
:1050200005020502059910310591002D00F0A882B6
:1050300000F0FE008E28059808BF40F0080005909B
:1050400006F1200004F144011822FBF7DBF930BB24
:10505000212018B0BDEC088B01B0BDE8F08F00BF77
:105060001E2018B0BDEC088B01B0BDE8F08F00BF6A
:105070004FF0000800201AE0002800F0C38096EDF1
:105080000D0A94ED161A30EE010A67E7012809D0DF
:10509000022800F0C5810328059800F0C381022092
:1050A00005E000BF2846002D18BF012040000690F3
:1050B00005986FF02101C00704BF4FF6DE41CFF61F
:1050C000FF71069B01EA09011F06237B4FF621426F
:1050D00018BF914323B14A067FF5CDAC21F06101A1
:1050E000627B5AB14022C0F20202103211423FF4F8
:1050F000C2AC4FF6AF72CFF6FD721140A27B2AB15F
:1051000011F4403F3FF4B7AC21F44031E27B5AB197
:105110004022C0F2020211423FF4ADAC4FF6AF7232
:10512000CFF6FD721032114031B1242018B0BDEC21
:10513000088B01B0BDE8F08F0021CDE90E110D9173
:10514000F0B944F25C00C2F2000090F878008007E9
:1051500040F1F58060780138C0B20328059828BF77
:105160004030002D059000F0DB800698C0B2022888
:1051700040F0D680059860F07F000590DFE000BF2A
:105180006FF049001AEA000F48D0102018B0BDECAB
:10519000088B01B0BDE8F08FE8071CBF606C606150
:1051A000A80744BFA06CA061680744BFE06CE06141
:1051B000280744BF206D2062E80644BF606D60622E
:1051C000A80644BFA06DA062607850283FF401AFEC
:1051D00010E700BF9DED111A96ED152A94ED123AD5
:1051E00031EE021A33EE011A4EE600BF9DED130AAE
:1051F00096ED171A94ED142A30EE010A32EE000AE9
:1052000078E600BF9DED150A96ED191A94ED162A61
:1052100030EE010A32EE000AA0E600BF2078352801
:1052200001D00028B1D13069317A727A43F6CC349A
:105230000E9041EA0200C2F200048DF83C000DA875
:10524000214600F031FD00287FF491AB04F14407C2
:105250008FCFA56D06F1200C8CE88F00756318E3E5
:1052600096ED080A96ED141A94ED112A30EE410AD3
:1052700030EE420A84ED050AA8077FF5AFAC96ED43
:10528000090A96ED151A94ED122A30EE410A30EE15
:10529000420A84ED060A68077FF5A3AC96ED0A0A78
:1052A00096ED161A96ED1A2A30EE410A94ED131A6D
:1052B00030EE410A30EE420A84ED070A28077FF5F6
:1052C00093AC96ED0B0A96ED171A94ED142A30EE76
:1052D000410A30EE420A84ED080AE8067FF587AC01
:1052E00096ED0C0A96ED181A94ED152A30EE410A47
:1052F00030EE420A84ED090AA8067FF57BAC96EDF4
:105300000D0A96ED191A94ED162A30EE410A30EE88
:10531000420A84ED0A0A607850283FF45AAE69E6E2
:10532000707A10280BD13078059A01382021022894
:1053300001EA520088BF80F0200002430592206BF2
:10534000A178F061002971701CBF08208DF83C0025
:1053500094ED0F1A96ED040A94ED042AB4EE410A76
:1053600086ED052AF1EE10FA8DED0D2A04BF0598A1
:1053700010F0200011D0707A58B10599002908D496
:1053800005999FEDA40A402938BFB0EE410A05F007
:1053900093F994ED0F0A86ED040A0598400658BF6C
:1053A0008DED0E0AA07A727A94F84010824231761E
:1053B00005D09DED0E0A05F07FF9A27A72729DF874
:1053C0003C30317A607A1A4381428DF83C2007D014
:1053D000FEF7FEFD617A307A002918BF0143317271
:1053E0009DF83C0022780843042A8DF83C0003D144
:1053F00094ED0D0A01F058FC6079E178307106985F
:10540000B1705FFA80F9B9F1030F40F0D080A07954
:105410000028707100F0BC8094ED130ABCE000BF5E
:1054200005980430002D00F0AB80049B089F059088
:10543000012000FA03F1B84041EA00022A4200F0DC
:10544000378204F1440101EB830090ED000A06F17C
:10545000200000EB830393ED001A01EB870330EE8D
:10546000418A93ED000A00EB870393ED001A5FEA8F
:10547000096330EE419A00F123820998C4B22242B6
:1054800000F0F68243F6CC30C2F20000C07829F07A
:105490008E09012820D1E00740F00483A00700F125
:1054A0001483600700F12483200700F13483E006B1
:1054B00000F14483A0060FD543F6CC34C2F20004B9
:1054C000A06A07F09FFF9FED540B53EC102B07F0E1
:1054D00045FC07F0C7F8A06243F6CC36C2F20006DE
:1054E000049906F1140000EB8104089994ED000A78
:1054F00000EB810595ED001A38EE400A79EE410A7D
:1055000000F05EFB94ED001AD5ED000AB0EE409A73
:10551000B0EE410A00F054FBB0EE408A86ED0E0A70
:1055200039EE400AB0EEC09A19EE100A07F06AFF91
:105530009FED3B0B044653EC102B0D4607F0A9FFE3
:10554000C0B9B6EE000AB4EE409AF1EE10FA3FF799
:105550007FAD18EE100A07F055FF9FED330B53ECAB
:10556000102B07F0FBFB22462B4607F099FF002883
:105570007FF46EAD43F6CC340220C2F200045AE24E
:105580001A2018B0BDEC088B01B0BDE8F08F00BF49
:105590009FED200A0020E06496ED1A1AB4EE401A3E
:1055A000F1EE10FA03D086ED1A0A06F093F9B179FC
:1055B000E079814214D0B071DDE910C112AE43F63A
:1055C00030404CCEC2F20000C0E90EC14030159D03
:1055D0004CC043F63046C2F20006F56406F07AF994
:1055E00020782279A0F10A011E29F27040D8DFE864
:1055F00001F05195959595959595959595959595D8
:10560000959595951F951F959595959595954B9580
:10561000790000BF00000000666666666666394075
:105620007B14AE47E17A743FFCA9F1D24D62503F42
:105630009DF83C0040F001008DF83C0027B104F1DA
:1056400044000DA901F072FB04F114000DA901F052
:105650006DFB04F1140743F630468FCFA56AC2F202
:10566000000606F1200C8CE88F00756356E000BF41
:105670005C283DD0662851D10020C6E91400C6E957
:105680001600C6E9180047E006F12001062004F0E4
:1056900091FE43E043F6CC305FFA88F8C2F2000096
:1056A00000F11401404604F085FEB07943F6CC3495
:1056B0004045C2F2000431D104F114064FCE43F646
:1056C0003047C2F20007B86343F63040C2F2000030
:1056D0003C30A56A4EC043F63046C2F20006F5647F
:1056E0001AE000BF06F12001072004F063FE15E078
:1056F00004F144064FCE43F63047C2F20007386546
:1057000043F63040C2F200005430A56D4EC043F65F
:105710003046C2F20006756606F0DCF86078502864
:10572000307042D0B9F1020F3FD1E8B1012821D049
:1057300000F0FE00022840F08781059894ED0E0AE3
:10574000C0F38007049806F120020090089804F145
:105750001403019007980DA9029004F144000397E7
:1057600001F0A6F80BE000BF9DF83C0040F00100FE
:105770008DF83C0004F144000DA901F0D7FA04F1C2
:1057800044078FCF43F63045C2F20005A66D28626C
:1057900043F63040C2F2000000F1240C466343F6A9
:1057A00030468CE88E00C2F20006207AF071D8B341
:1057B00002F0B4FCF07903280CD140F29800C2F258
:1057C0000000007802282DD0082006F0ADF802F085
:1057D000A5FE27E0012030800020A6F80300B0716C
:1057E000308140F29800C2F20000027846F2644133
:1057F0000181022A4FF06401817210D006F1380154
:10580000002004F0A1FA00284AD006F063F89FEDCA
:10581000DA0A002004F098FE0020FEF78DFB082035
:1058200003F074F90020F071257B55B194ED0D0A59
:1058300006F029FEBDEEC00A10EE100A294601F05E
:105840001FFD607B68B194ED0D0A06F01CFEBDEEF5
:10585000C00A94F82C1010EE100A04F1600206F051
:10586000CDF8A07B28B194F85C0004F1600101F050
:105870004DFCE07B68B194ED0D0A06F004FEBDEE30
:10588000C00A10EE100A04F16001FEF759FA02F0A6
:105890001BF9002018B0BDEC088B01B0BDE8F08FFB
:1058A000072018B0BDEC088B01B0BDE8F08F00BF39
:1058B000202018B0BDEC088B01B0BDE8F08F00BF10
:1058C0001822FAF79FFD00283FF4C2AB43F6CC3113
:1058D000C2F20001C87891ED0E0A012812D110EE33
:1058E000100A07F08FFD9FEDA00B53EC102B07F073
:1058F00035FA06F0B7FE43F6CC3100EE100AC2F2DC
:105900000001886310EE100A07F07CFD9FED980BF4
:10591000044653EC102B0D4607F020FA28EE080A37
:10592000099010EE100A069107F06CFD06460F462E
:105930000998069922462B4607F010FA32463B4654
:1059400007F072FC29EE090A044610EE100A0D4613
:1059500007F058FD02460B462046294607F064FC36
:1059600006F080FE00EE100AB5EE400AF1EE10FAE5
:10597000C0F2908029F0800907F044FD41EC100B43
:1059800006F044FD8DED0A0B9DF82F00B0EE480A9D
:1059900080F080008DF82F00DDE90A45F0EE490A1D
:1059A00000F00EF910EE100A07F02CFD02460B462F
:1059B0002046294606F03CFF06F054FE43F6CC3163
:1059C000C2F2000100EE100A487891ED0E1A032889
:1059D000B5EE401AB1EE402A08BFB0EE420AF1EE31
:1059E00010FA09DA43F6CC30B1EE400AB1EE411AB2
:1059F000C2F2000080ED0E1A43F6CC3429EE001AF4
:105A0000C2F20004049938EE411AB6EE002A04F1FD
:105A1000140021EE021A00EB810181ED001A28EE3C
:105A2000000A089930EE090A20EE020A00EB810014
:105A300080ED000A0220069043F63046C2F20006CE
:105A40005D46FFF735BB00BF9DF83C00059940F06F
:105A500004008DF83C0004F14400CAB20DA901F025
:105A6000A3F901280CD000283FF489AE9DE600BFC1
:105A7000232018B0BDEC088B01B0BDE8F08F00BF4B
:105A800040F2AC0106F12000C2F2000105F036FC44
:105A90008BE600BF222018B0BDEC088B01B0BDE83A
:105AA000F08F00BF43F6CC35C2F20005686907F0FD
:105AB000A9FC9FED2D0B53EC102B07F04FF906F0CE
:105AC000D1FD6861A0077FF5ECAC43F6CC35C2F29E
:105AD0000005A86907F096FC9FED230B53EC102BF3
